:020000040800F2
:1000000000000224FDCB0008B5120008B71200085A
:10001000B9120008BB120008BD1200080000000061
:1000200000000000000000000000000091760008C1
:10003000BF12000800000000317700089577000823
:1000400051CC000851CC000851CC000851CC00081C
:1000500051CC000851CC000851CC000851CC00080C
:1000600051CC000851CC000851CC0008C112000846
:10007000D1120008E112000851CC000851CC000850
:1000800051CC000851CC000851CC0008F1120008F6
:1000900051CC000851CC00080113000851CC0008D5
:1000A00051CC000851CC000851CC000851CC0008BC
:1000B0001113000851CC000851CC000851CC0008A5
:1000C00051CC000851CC000851CC000851CC00089C
:1000D000211300083113000851CC000851CC00084E
:1000E00051CC000851CC00080000000051CC0008A1
:1000F00051CC000851CC000851CC00084113000835
:1001000051CC000851CC000851CC000851CC00085B
:1001100051CC00085113000851CC000851CC000804
:1001200051CC000851CC000851CC000851CC00083B
:1001300051CC000851CC000851CC000851CC00082B
:1001400000000000000000000000000000000000AF
:1001500051CC000851CC000851CC000851CC00080B
:1001600051CC000851CC000851CC000851CC0008FB
:1001700051CC000851CC000851CC00080000000010
:1001800051CC000851CC00086113000851CC000884
:1001900051CC000851CC000851CC000851CC0008CB
:1001A00051CC000851CC000851CC000800000000E0
:1001B00051CC000851CC000851CC000851CC0008AB
:1001C00051CC000851CC00080000000000000000E5
:1001D000000000000000000051CC000800000000FA
:1001E000000000000000000000000000000000000F
:1001F000000000000000000051CC000851CC0008B5
:1002000051CC000851CC00080000000051CC00087F
:1002100051CC000851CC000851CC000851CC00084A
:1002200051CC00080000000051CC00080000000084
:1002300051CC000851CC00080000000051CC00084F
:1002400051CC000851CC000851CC000851CC00081A
:1002500051CC000851CC000851CC000851CC00080A
:1002600051CC000851CC000851CC000851CC0008FA
:1002700051CC000851CC000851CC0008000000000F
:1002800051CC000851CC000851CC000851CC0008DA
:100290000000000051CC000851CC00080000000014
:1002A0000000000051CC000851CC000851CC0008DF
:1002B00051CC000851CC000851CC000851CC0008AA
:0C02C00051CC000851CC000851CC0008C3
:1002D00010B5054C237833B9044B13B10448AFF380
:1002E00000800123237010BD900200240000000054
:1002F0002C09010808B5034B1BB103490348AFF3B0
:10030000008008BD00000000940200242C090108B0
:10031000034613F8012B002AFBD1181A0138704745
:1003200001F0FF01102A2BDB10F0070F08D010F8A6
:10033000013B013A8B422DD010F0070F42B3F6D1AA
:10034000F0B441EA012141EA014122F007047FF0C3
:1003500000070023F0E80256083C85EA010586EA1A
:10036000010685FA47F5A3FA87F586FA47F6A5FA56
:1003700087F68EB9EED1F0BC01F0FF0102F0070262
:1003800032B110F8013B013A83EA010313B1F8D10D
:100390000020704701387047002D06BF35460338EE
:1003A000073815F0010F07D1013015F4807F02BF27
:1003B000013015F4C03F0130F0BC0138704700BF78
:1003C00081F0004102E000BF83F0004330B54FEA06
:1003D00041044FEA430594EA050F08BF90EA020F73
:1003E0001FBF54EA000C55EA020C7FEA645C7FEA06
:1003F000655C00F0E2804FEA5454D4EB5555B8BF29
:100400006D420CDD2C4480EA020281EA030382EA99
:10041000000083EA010180EA020281EA0303362D2B
:1004200088BF30BD11F0004F4FEA01314FF4801CFE
:100430004CEA113102D0404261EB410113F0004F10
:100440004FEA03334CEA133302D0524263EB4303C7
:1004500094EA050F00F0A780A4F10104D5F1200E65
:100460000DDB02FA0EFC22FA05F2801841F10001C0
:1004700003FA0EF2801843FA05F359410EE0A5F194
:1004800020050EF1200E012A03FA0EFC28BF4CF0C5
:10049000020C43FA05F3C01851EBE37101F000457B
:1004A00007D54FF0000EDCF1000C7EEB00006EEB88
:1004B0000101B1F5801F1BD3B1F5001F0CD3490812
:1004C0005FEA30004FEA3C0C04F101044FEA445269
:1004D00012F5800F80F09A80BCF1004F08BF5FEAF0
:1004E000500C50F1000041EB045141EA050130BDD0
:1004F0005FEA4C0C404141EB0101013C28BFB1F5E2
:10050000801FE9D291F0000F04BF01460020B1FA2C
:1005100081F308BF2033A3F10B03B3F120020CDAFF
:100520000C3208DD02F1140CC2F10C0201FA0CF0DD
:1005300021FA02F10CE002F11402D8BFC2F1200C42
:1005400001FA02F120FA0CFCDCBF41EA0C019040F8
:10055000E41AA2BF01EB0451294330BD6FEA040441
:100560001F3C1CDA0C340EDC04F11404C4F120022C
:1005700020FA04F001FA02F340EA030021FA04F33E
:1005800045EA030130BDC4F10C04C4F1200220FA95
:1005900002F001FA04F340EA0300294630BD21FAD3
:1005A00004F0294630BD94F0000F83F4801306BF99
:1005B00081F480110134013D4EE77FEA645C18BF8D
:1005C0007FEA655C29D094EA050F08BF90EA020F24
:1005D00005D054EA000C04BF1946104630BD91EA1C
:1005E000030F1EBF0021002030BD5FEA545C05D11F
:1005F0004000494128BF41F0004130BD14F580045E
:100600003CBF01F5801130BD01F0004545F0FE41D1
:1006100041F470014FF0000030BD7FEA645C1ABF06
:10062000194610467FEA655C1CBF0B46024650EA3D
:10063000013406BF52EA033591EA030F41F4002169
:1006400030BD00BF90F0000F04BF0021704730B5EF
:100650004FF4806404F132044FF000054FF00001C4
:1006600050E700BF90F0000F04BF0021704730B585
:100670004FF4806404F1320410F0004548BF40425A
:100680004FF000013EE700BF42004FEAE2014FEAAF
:1006900031014FEA02701FBF12F07F4393F07F4F8A
:1006A00081F06051704732F07F4208BF704793F08D
:1006B0007F4F04BF41F40021704730B54FF46074A0
:1006C00001F0004521F000411CE700BF50EA0102A3
:1006D00008BF704730B54FF000050AE050EA01024C
:1006E00008BF704730B511F0004502D5404261EBBC
:1006F00041014FF4806404F132045FEA915C3FF4FD
:10070000D8AE4FF003025FEADC0C18BF03325FEA99
:10071000DC0C18BF033202EBDC02C2F1200300FA4A
:1007200003FC20FA02F001FA03FE40EA0E0021FA6F
:1007300002F11444BDE600BF53B94AB9002908BF0D
:1007400000281CBF4FF0FF314FF0FF3000F074B9AC
:10075000ADF1080C6DE904CE00F006F8DDF804E018
:10076000DDE9022304B070472DE9F047089D0446F7
:100770008E46002B4DD18A42944669D9B2FA82F254
:1007800052B101FA02F3C2F1200120FA01F10CFA90
:1007900002FC41EA030E94404FEA1C48210CBEFBC8
:1007A000F8F61FFA8CF708FB16E341EA034306FB51
:1007B00007F199420AD91CEB030306F1FF3080F0E0
:1007C0001F81994240F21C81023E63445B1AA4B22D
:1007D000B3FBF8F008FB103344EA034400FB07F7CF
:1007E000A7420AD91CEB040400F1FF3380F00A8110
:1007F000A74240F207816444023840EA0640E41B05
:1008000000261DB1D4400023C5E900433146BDE8B0
:10081000F0878B4209D9002D00F0EF800026C5E952
:10082000000130463146BDE8F087B3FA83F6002E6A
:100830004AD18B4202D3824200F2F980841A61EBE2
:10084000030301209E46002DE0D0C5E9004EDDE700
:1008500002B9FFDEB2FA82F2002A40F09280A1EBE8
:100860000C014FEA1C471FFA8CFE0126200CB1FB3D
:10087000F7F307FB131140EA01410EFB03F0884236
:1008800008D91CEB010103F1FF3802D2884200F2C3
:10089000CB804346091AA4B2B1FBF7F007FB101155
:1008A00044EA01440EFB00FEA64508D91CEB0404F3
:1008B00000F1FF3102D2A64500F2BB800846A4EB4E
:1008C0000E0440EA03409CE7C6F12007B34022FA39
:1008D00007FC4CEA030C20FA07F401FA06F31C4368
:1008E000F9404FEA1C4900FA06F3B1FBF9F8200C75
:1008F0001FFA8CFE09FB181140EA014108FB0EF0BB
:10090000884202FA06F20BD91CEB010108F1FF3A0A
:1009100080F08880884240F28580A8F10208614416
:10092000091AA4B2B1FBF9F009FB101144EA014124
:1009300000FB0EFE8E4508D91CEB010100F1FF34CF
:100940006CD28E456AD90238614440EA0840A0FB67
:100950000294A1EB0E01A142C846A64656D353D03D
:100960005DB1B3EB080261EB0E0101FA07F722FA61
:1009700006F3F1401F43C5E9007100263146BDE88A
:10098000F087C2F12003D8400CFA02FC21FA03F3ED
:10099000914001434FEA1C471FFA8CFEB3FBF7F06E
:1009A00007FB10360B0C43EA064300FB0EF69E4293
:1009B00004FA02F408D91CEB030300F1FF382FD22C
:1009C0009E422DD9023863449B1B89B2B3FBF7F6D4
:1009D00007FB163341EA034106FB0EF38B4208D9AD
:1009E0001CEB010106F1FF3816D28B4214D9023EEE
:1009F0006144C91A46EA004638E72E46284605E70C
:100A00000646E3E61846F8E64B45A9D2B9EB0208DC
:100A100064EB0C0E0138A3E74646EAE7204694E76C
:100A20004046D1E7D0467BE7023B614432E730469F
:100A300009E76444023842E7704700BF08B503681D
:100A4000B3F1804F00D008BD04F0B0FCFBE772B6F4
:100A5000FEE7000000B59DB04C22002109A80CF073
:100A600039F92022002101A80CF034F9022004F009
:100A700045FC00230093204B9A6922F440429A617E
:100A80009B6903F440430093009B1B4B9B6913F449
:100A9000005FFAD0012209924FF480330A930223B7
:100AA00012931393149328211591169204221792EE
:100AB00018930C23199300231A931B9309A801F090
:100AC000A9F9A8B93F2301930321029100230393BD
:100AD000082304934023059306934FF48062079202
:100AE000089301A801F086FD20B91DB05DF804FB54
:100AF000FFF7ADFFFFF7ABFF0048025808B504F061
:100B000027FCFFF7A7FF00F017F800F01FF900F02F
:100B100065FA00F04FF900F07FF900F087FB0AF06A
:100B20003FFE0AF005FE0AF06FFE0AF0BFFD00F07E
:100B3000A3F806F0F7FBFEE730B58DB0002407946C
:100B4000089409940A940B94334BD3F8E02042F0B4
:100B50008002C3F8E020D3F8E02002F08002019286
:100B6000019AD3F8E02042F00402C3F8E020D3F861
:100B7000E02002F004020292029AD3F8E02042F050
:100B80000202C3F8E020D3F8E02002F00202039250
:100B9000039AD3F8E02042F01002C3F8E020D3F823
:100BA000E02002F010020492049AD3F8E02042F010
:100BB0000102C3F8E020D3F8E02002F00102059220
:100BC000059AD3F8E02042F00802C3F8E020D3F8F9
:100BD000E03003F008030693069B104D0122092123
:100BE000284602F0E7FF092307930123089309949D
:100BF00003230A9307A9284602F0D2FE4FF4A0531C
:100C000007934FF488130893099407A9044802F046
:100C1000C7FE0DB030BD00BF0044025800080258A6
:100C20000010025808B5012006F0B6FBFBE708B536
:100C3000012006F0B1FBFBE708B5012006F0ACFB94
:100C4000FBE708B50AF06EFA012006F0A5FBF9E70C
:100C500008B50AF097FC012006F09EFBF9E70000BA
:100C6000034B0360034B0B6080231360704700BF8E
:100C7000C0040024C002002410B5A4B02D4C0DF116
:100C8000740CA646BEE80F00ACE80F009EE8070013
:100C90008CE8070000211DA806F049FB264B1860D0
:100CA0000DF1580C04F11C0EBEE80F00ACE80F006B
:100CB0009EE807008CE80700002116A806F037FB25
:100CC0001E4B18600DF13C0C04F1380EBEE80F000D
:100CD000ACE80F009EE807008CE8070000210FA891
:100CE00006F025FB164B18600DF1200C04F1540E94
:100CF000BEE80F00ACE80F009EE807008CE8070094
:100D0000002108A806F013FB0E4B18600DF1040E2D
:100D100004F1700CBCE80F00AEE80F009CE807007F
:100D20008EE80700002101A806F001FB064B1860C1
:100D300024B010BD48090108BC020024B002002400
:100D4000B8020024AC020024B402002400B583B031
:100D5000174BD3F8D82042F00102C3F8D820D3F8BB
:100D6000D83003F001030193019B002205210B20E1
:100D700001F00CF80B2001F03FF8002205210C20B7
:100D800001F004F80C2001F037F8002205210D20B5
:100D900000F0FCFF0D2001F02FF8002205212F208C
:100DA00000F0F4FF2F2001F027F803B05DF804FBFA
:100DB0000044025808B51648164B036000238360B0
:100DC000C36003744374837403224261012181610F
:100DD0001D22C2610A220262042242628162C16251
:100DE0000163436305218163C16302640821416497
:100DF0008364C164036542658365C36502664366B7
:100E0000816604F029FC00B908BDFFF720FEFBE76E
:100E10001805002400A0004010B51748174B0360C8
:100E200000238360C36003744374837403244461A8
:100E3000012282611D21C1610A2202624462826232
:100E4000C162026340F2064242630E228263C363C0
:100E50000422026442648264C2640365426583655D
:100E6000C36502664366826604F0F6FB00B910BDF6
:100E7000FFF7EDFDFBE700BFB805002400A400402C
:100E800010B5B8B0044600213391349135913691B4
:100E90003791B82204A80BF01DFF2368494A9342FA
:100EA00004D0494A934247D038B010BD4FF40042B5
:100EB0000023CDE904234FF080531F9304A801F0D1
:100EC0005FFE40BB414A136801331360012B25D0FC
:100ED0003F4BD3F8E02042F00802C3F8E020D3F8FB
:100EE000E03003F008030193019B032333930223B3
:100EF00034930024359436940923379333A9354825
:100F000002F04EFD22460521132000F03FFF132082
:100F100000F072FFC8E7FFF79AFDD3E72C4BD3F838
:100F2000EC2042F48072C3F8EC20D3F8EC3003F4E8
:100F300080730093009BCBE74FF400420023CDE980
:100F400004234FF080531F9304A801F019FE40BB07
:100F50001E4A136801331360012B25D01C4BD3F8B4
:100F6000E02042F00202C3F8E020D3F8E03003F0C2
:100F700002030393039B60233393022334930024DF
:100F8000359436940923379333A9134802F008FDAA
:100F900022460521162000F0F9FE162000F02CFF55
:100FA00082E7FFF754FDD3E7094BD3F8EC2042F476
:100FB0008072C3F8EC20D3F8EC3003F48073029312
:100FC000029BCBE700A0004000A4004014050024D1
:100FD00000440258000C02580004025808B5154895
:100FE000154B03604FF480034360002383600722A6
:100FF000C2604FF0007202614FF0807242614FF0A8
:10100000806282614FF08042C26103624362836208
:10101000C36242638363C363036443648364C364DE
:1010200003654365836505F0B5F800B908BDFFF7B2
:101030000EFDFBE748070024003800402DE9F04191
:10104000B8B00446002133913491359136913791EF
:10105000B82204A80BF03EFE2268494B9A4202D007
:1010600038B0BDE8F0814FF480520023CDE904236D
:1010700004A801F085FD002879D1424BD3F8E8207F
:1010800042F48042C3F8E820D3F8E82002F480421A
:101090000192019AD3F8E02042F00402C3F8E02064
:1010A000D3F8E02002F004020292029AD3F8E02082
:1010B00042F00202C3F8E020D3F8E03003F002036C
:1010C0000393039B062333934FF00208CDF8D0809F
:1010D00000253595032736970526379633A92A48E4
:1010E00002F05EFC4FF400533393CDF8D080359579
:1010F0003697379633A9254802F052FC2448254BF1
:101100000360272343608560C5604FF480630361FB
:1011100045618561C5614FF440330362456202F069
:1011200063FF38BB1A4BE3679C631B481B4B036090
:1011300028234360402383600023C3604FF4806210
:10114000026143618361C3614FF400320262436212
:1011500002F04AFF88B9104BA3679C630022052167
:10116000242000F013FE242000F046FE78E7FFF76D
:101170006EFC82E7FFF76BFCD4E7FFF768FCEAE759
:101180000038004000440258000802580004025889
:101190005806002440000240D006002428000240E7
:1011A00002680A4B9A4200D0704782B0084BD3F8CD
:1011B000E82042F00202C3F8E820D3F8E83003F058
:1011C00002030193019B02B0704700BF000400407E
:1011D0000044025800B587B00023019302930393A3
:1011E0000493059302680E4B9A4202D007B05DF853
:1011F00004FB0C4BD3F8E02042F00202C3F8E020DD
:10120000D3F8E03003F002030093009B0223019324
:101210000293059301A9044802F0C2FBE6E700BF70
:1012200000040040004402580004025800B58BB08E
:101230000023079308930993009301930293039368
:101240000493059306931948194A026017224260D5
:10125000836042F20F72C26003618023836100F0F9
:101260000FFCC8B900230793099307A90F4800F0A2
:101270001FFDA0B960230093002301930293049300
:101280000C226946094800F075FC58B90748FFF779
:10129000A1FF0BB05DF804FBFFF7D9FBE2E7FFF716
:1012A000D6FBE7E7FFF7D3FBF0E700BFD00700244A
:1012B00000040040FEE7FEE7FEE7FEE7FEE77047BA
:1012C00008B5024803F07EFC08BD00BFCC8B0024AB
:1012D00008B5024803F076FC08BD00BFD006002424
:1012E00008B5024803F06EFC08BD00BF5806002494
:1012F00008B5024804F02CFD08BD00BF1805002405
:1013000008B5024804F024FD08BD00BFB80500245C
:1013100008B5024800F036FA08BD00BF1C080024DA
:1013200008B5024805F05AFA08BD00BF4807002476
:1013300008B502480AF05EFC08BD00BF448C0024DA
:1013400008B5024803F03EFC08BD00BF548B0024E2
:1013500008B502480AF04EFC08BD00BFD88C002436
:1013600008B502480AF046FC08BD00BF6C8D002499
:1013700000B583B00A4BD3F8F42042F00202C3F860
:10138000F420D3F8F43003F002030193019B002210
:101390000F216FF0010000F0F9FC03B05DF804FBD1
:1013A000004402580F2801D90120704710B58AB0B7
:1013B0000446002201461C2000F0E8FC1C2000F03E
:1013C0001BFD1B4B1C601B4BD3F8E82042F00102B5
:1013D000C3F8E820D3F8E83003F001030093009B42
:1013E00001A902A801F096FA079BC3B901F06EFAB1
:1013F00003461148A0FB03239B0C013B0F484FF011
:101400008042026040F2E732C26043600023036121
:10141000836000F005FB30B101200AB010BD01F07F
:1014200055FA4300E5E7054800F058F9F5E700BF35
:10143000040000240044025883DE1B431C080024DF
:10144000F0B4036A026A22F001020262466884690B
:101450001F4A22400D68154323F002038C68234382
:101460001C4A1D4CA04218BF90420CBF0122002212
:101470000CD004F58044A04214BF00240124174F6F
:10148000B84203D014B9164CA04205D123F008038A
:10149000CC68234323F004035AB9124A904214BF84
:1014A000002201220D4CA04203D012B90C4A9042F6
:1014B00007D126F4407C4A6942EA0C0C8E6946EA60
:1014C0000C06466085614A6842630362F0BC70475F
:1014D0008CFFFEFF0000014000040140004001407D
:1014E000004801400044014070B4036A026A22F4DB
:1014F000807202624568C4691A4A22400E68164327
:1015000023F400738A6843EA0223174A174CA04267
:1015100018BF90420CBF0122002206D123F40063C1
:10152000CC6843EA042323F480635AB9104A9042FA
:1015300014BF002201220F4CA04203D012B90E4A60
:10154000904207D125F4405C4A694CEA021C8D693F
:101550004CEA05154560C6614A68C263036270BC07
:10156000704700BF8CFFFEFF0000014000040140F7
:1015700000440140004001400048014070B4036A4B
:10158000026A22F4805202624468C569144A2A4001
:101590000D6842EA052223F400538D6843EA0533BF
:1015A000104E114DA84218BFB0420DD005F5804530
:1015B000A84214BF0025012506F58046B04203D09D
:1015C00015B90A4DA84204D124F480444D6944EA77
:1015D00085144460C2614A680264036270BC70474B
:1015E000FF8CFFFE00000140000401400048014064
:1015F00070B4036A026A22F4803202624268456D66
:10160000144C2C400D682C4323F400338D6843EABE
:101610000543114E114DA84218BFB0420DD005F53B
:101620008045A84214BF0025012506F58046B0423A
:1016300003D015B90A4DA84204D122F480324D6975
:1016400042EA0522426044654A688265036270BCD2
:10165000704700BF8FFFFEFF000001400004014003
:101660000048014070B4036A026A22F480120262E8
:101670004468456D144A2A400D6842EA052223F465
:1016800000138D6843EA0553104E114DA84218BF50
:10169000B0420DD005F58045A84214BF00250125B4
:1016A00006F58046B04203D015B90A4DA84204D1D0
:1016B00024F480244D6944EA8524446042654A68E4
:1016C000C265036270BC7047FF8FFFFE00000140DF
:1016D00000040140004801407047000090F83D3090
:1016E000DBB2012B42D1022380F83D300268D3687F
:1016F00043F00103D36003681E4AB3F1804F18BF63
:10170000934225D0A2F57C42934221D002F580621B
:1017100093421DD002F58062934219D002F57842BF
:10172000934215D0A2F56C42934211D002F5943247
:1017300093420DD0A2F5C042934209D002F58062D7
:10174000934205D01A6842F001021A6000207047E7
:101750009968094A0A40062A18BFB2F5803F07D0A7
:101760001A6842F001021A60002070470120704799
:1017700000207047000001400700010070477047DB
:101780007047704770B504460368DE681D6915F040
:10179000020F10D016F0020F0DD06FF002021A6186
:1017A0000123037703689B6913F0030F64D0FFF7ED
:1017B000E6FF0023237715F0040F12D016F0040F74
:1017C0000FD023686FF004021A6102232377236885
:1017D0009B6913F4407F55D02046FFF7D0FF0023CC
:1017E000237715F0080F12D016F0080F0FD02368DA
:1017F0006FF008021A61042323772368DB6913F072
:10180000030F46D02046FFF7BAFF0023237715F0D9
:10181000100F12D016F0100F0FD023686FF01002C7
:101820001A61082323772368DB6913F4407F37D0DC
:101830002046FFF7A4FF0023237715F0010F02D005
:1018400016F0010F33D115F4025F02D016F0800FAD
:1018500035D115F4807F02D016F0800F37D115F006
:10186000400F02D016F0400F39D115F0200F02D0F2
:1018700016F0200F3BD170BDFFF780FF2046FFF729
:101880007FFF96E72046FFF779FF2046FFF778FFB6
:10189000A5E72046FFF772FF2046FFF771FFB4E788
:1018A0002046FFF76BFF2046FFF76AFFC3E7236878
:1018B0006FF001021A612046FFF7C0F8C3E7236802
:1018C0006FF402521A61204600F04BFAC1E7236818
:1018D0006FF480721A61204600F044FABFE7236873
:1018E0006FF040021A612046FFF74BFFBDE7236807
:1018F0006FF020021A61204600F032FABBE70000C8
:1019000070B403683E4A904214BF00220122B0F135
:10191000804F14BF144642F00104ACB9394DA842BF
:1019200014BF00250125384EB0420DD065B905F130
:10193000804505F58235A84214BF0025012506F52E
:101940000066B04200D01DB123F070034D682B43F8
:1019500064BB2C4CA04214BF002401242A4DA84291
:1019600024D01CBB04F1804404F58234A04214BF8F
:101970000024012405F50065A84217D0B4B9234C12
:10198000A04214BF0024012405F59A35A8420DD0C9
:1019900064B91F4CA04214BF0024012405F5006562
:1019A000A84203D014B91B4CA04203D123F44073C6
:1019B000CC68234323F080034C6923438C68C462C2
:1019C0000C688462144CA04208BF42F0010262B964
:1019D0000E4A904214BF0022012204F57054A04226
:1019E00003D012B90D4A904201D10A69026302681C
:1019F00042F00402026001224261036070BC704741
:101A00000000014000080040000400400044014084
:101A100000E0004000E400400004014000480140B4
:101A200060B310B5044690F83D3013B3022384F838
:101A30003D30214651F8040BFFF762FF012384F883
:101A4000483084F83E3084F83F3084F8403084F8E1
:101A5000413084F8423084F8433084F8443084F8CC
:101A6000453084F8463084F8473084F83D30002013
:101A700010BD80F83C30FFF72FFED7E701207047FC
:101A800060B310B5044690F83D3013B3022384F8D8
:101A90003D30214651F8040BFFF732FF012384F853
:101AA000483084F83E3084F83F3084F8403084F881
:101AB000413084F8423084F8433084F8443084F86C
:101AC000453084F8463084F8473084F83D300020B3
:101AD00010BD80F83C30FFF763FBD7E7012070476B
:101AE00070B4036A026A22F01002026245688469D7
:101AF0001A4A22400E6842EA062623F020038A682A
:101B000043EA0213164A174CA04218BF90420CBF7A
:101B10000122002206D123F08003CC6843EA04139B
:101B200023F040035AB9104A904214BF0022012208
:101B30000E4CA04203D012B90D4A904207D125F4B1
:101B4000406C4A694CEA820C8D694CEA8505456017
:101B500086614A688263036270BC7047FF8CFFFE37
:101B600000000140000401400044014000400140E9
:101B70000048014038B590F83C30012B00F09580CA
:101B800004460D46012380F83C30142A00F2888078
:101B9000DFE802F00B8686861F8686863486868678
:101BA000488686865D86868671000068FFF748FC59
:101BB0002268936943F0080393612268936923F0D4
:101BC000040393612268936929690B4393610020A0
:101BD00067E00068FFF784FF2268936943F40063BD
:101BE00093612268936923F4806393612268936907
:101BF000296943EA01239361002052E00068FFF75E
:101C000073FC2268D36943F00803D3612268D36967
:101C100023F00403D3612268D36929690B43D3619C
:101C200000203EE00068FFF7A9FC2268D36943F476
:101C30000063D3612268D36923F48063D36122688F
:101C4000D369296943EA0123D361002029E00068B0
:101C5000FFF7CEFC2268536D43F0080353652268FA
:101C6000536D23F0040353652268536D29690B43B8
:101C70005365002015E00068FFF7F4FC2268536DFF
:101C800043F4006353652268536D23F48063536506
:101C90002268536D296943EA01235365002000E05F
:101CA0000120002384F83C3038BD0220FCE700000E
:101CB00090F83C30012B4DD070B4012380F83C30BB
:101CC000022380F83D3003685A689C68224E234DF9
:101CD000AB4218BFB34203D122F470024D682A43CD
:101CE00022F070020D682A435A6003681A4AB3F161
:101CF000804F18BF93421FD0A2F57C4293421BD065
:101D000002F58062934217D002F58062934213D0AD
:101D100002F5784293420FD0A2F56C4293420BD069
:101D200002F59432934207D0A2F5C042934203D009
:101D300002F58062934204D124F080048A6814433F
:101D40009C60012380F83D30002380F83C30184629
:101D500070BC704702207047000001400004014041
:101D600070477047704700000649CB6823F4E06372
:101D70001B041B0C000200F4E0600343024A1A43F8
:101D8000CA60704700ED00E00000FA0500B5174B8F
:101D9000DB68C3F30223C3F1070CBCF1040F28BFB7
:101DA0004FF0040C03F1040EBEF1060F14D9033BEF
:101DB0004FF0FF3E0EFA0CFC21EA0C0199400EFA9E
:101DC00003F322EA03031943002807DB0901C9B220
:101DD000074B19545DF804FB0023E9E700F00F00FE
:101DE0000901C9B2034B1954F4E700BF00ED00E04C
:101DF00000E400E014ED00E0002807DB00F01F0223
:101E0000400901239340024A42F82030704700BF46
:101E100000E100E0002800F0D78238B504460368EE
:101E200013F0010F25D0A04A136903F03803926A1A
:101E3000102B15D0182B0FD06368B3F5803F3FD01F
:101E4000002B53D1984B1A6822F480321A601A681A
:101E500022F480221A6038E002F00302022AEBD159
:101E6000914B1B6813F4003F03D06368002B00F014
:101E7000AD82236813F0020F00F088808A4A13694C
:101E8000926A13F038035AD0182B55D0E368002B10
:101E900000F0A98084490A6822F0190213430B60FC
:101EA00003F090FA0546804B1B6813F0040F40F0D6
:101EB000918003F087FA401B0228F4D903208CE2BA
:101EC000794A136843F48033136063682BB303F0DB
:101ED00079FA0546744B1B6813F4003FC9D103F02F
:101EE00071FA401B6428F5D9032076E2B3F5A02FE0
:101EF00009D06D4B1A6822F480321A601A6822F4F5
:101F000080221A60E1E7684B1A6842F480221A6066
:101F10001A6842F480321A60D7E703F053FA054694
:101F2000614B1B6813F4003FA3D003F04BFA401B36
:101F30006428F5D9032050E212F0030FA6D15A4BC2
:101F40001B6813F0040F03D0E368002B00F04082FD
:101F5000554A136823F01903E1680B43136003F03B
:101F600031FA0546504B1B6813F0040F06D103F0FD
:101F700029FA401B0228F5D903202EE24A4A536869
:101F800023F0FE43216943EA01635360236813F0A1
:101F9000100F51D0444A136903F03803926A082B9A
:101FA00039D0182B33D0E369002B69D03E4A13682F
:101FB00043F08003136003F005FA05463A4B1B68B3
:101FC00013F4807F53D103F0FDF9401B0228F5D9AB
:101FD000032002E2344A536823F0FE43216943EAB6
:101FE00001635360D2E7304A136823F001031360A2
:101FF00003F0E8F905462C4B1B6813F0040FC5D01D
:1020000003F0E0F9401B0228F5D90320E5E102F0D6
:102010000302012AC7D1244B1B6813F4807F03D02D
:10202000E369802B40F0D6811F4AD36823F07C53AC
:10203000216A43EA0163D360236813F0080F49D093
:102040006369002B32D0184A536F43F00103536782
:1020500003F0B8F90546144B5B6F13F0020F39D14A
:1020600003F0B0F9401B0228F5D90320B5E10E4A70
:10207000D36823F07C53216A43EA0163D360DBE732
:10208000094A136823F08003136003F09BF90546A7
:10209000054B1B6813F4807FCED003F093F9401BEF
:1020A0000228F5D9032098E1004402589D4A536F55
:1020B00023F00103536703F085F90546994B5B6FE5
:1020C00013F0020F06D003F07DF9401B0228F5D96A
:1020D000032082E1236813F0200F29D0A3699BB16C
:1020E000904A136843F48053136003F06BF905467C
:1020F0008C4B1B6813F4005F1AD103F063F9401B8B
:102100000228F5D9032068E1864A136823F4805336
:10211000136003F057F90546824B1B6813F4005F08
:1021200006D003F04FF9401B0228F5D9032054E1F3
:10213000236813F0040F21D1636A002B00F04C8157
:10214000784A126902F03802182A00F0F380022B54
:1021500075D0744A136823F08073136003F032F96A
:102160000446704B1B6813F0007F00F0D88003F02A
:1021700029F9001B0228F4D903202EE16A4A1368CA
:1021800043F48073136003F01DF90546664B1B682A
:1021900013F4807F06D103F015F9401B6428F5D9AC
:1021A00003201AE1A368012B0AD00BBB5D4B1A6F09
:1021B00022F001021A671A6F22F004021A6704E083
:1021C000584A136F43F001031367A36833B303F056
:1021D000F9F80546534B1B6F13F0020FACD103F017
:1021E000F1F8401B41F288339842F3D90320F4E020
:1021F000052B09D04B4B1A6F22F001021A671A6F98
:1022000022F004021A67E0E7464B1A6F42F004021C
:102210001A671A6F42F001021A67D6E703F0D2F884
:102220000546404B1B6F13F0020F85D003F0CAF830
:10223000401B41F288339842F3D90320CDE0394A5C
:10224000136823F08073136003F0BCF80546354B28
:102250001B6813F0007F06D003F0B4F8401B02287F
:10226000F5D90320B9E02F4B996A304A0A40A16A98
:10227000E06A41EA00110A439A62226B013AC2F312
:102280000802616B0139490289B20A43A16B013925
:10229000090401F4FE010A43E16B0139090601F06A
:1022A000FE410A431A63DA6A22F00102DA62596BCC
:1022B0001F4A0A40A16C42EAC1025A63DA6A22F05C
:1022C0000C02216C0A43DA62DA6A22F00202616CC3
:1022D0000A43DA62DA6A42F48032DA62DA6A42F493
:1022E0000032DA62DA6A42F48022DA62DA6A42F0B2
:1022F0000102DA621A6842F080721A6003F062F832
:102300000446084B1B6813F0007F06D103F05AF80F
:10231000001B0228F5D903205FE000205DE00020CB
:102320005BE000BF00440258004802580CFCFFFF6D
:102330000700FFFF30498A6A086B012B4ED002F07C
:102340000303A16A8B424BD1C2F30512E36A9A429E
:1023500048D1C0F30802236B013B9A4244D1C0F339
:102360004622636B013B9A4240D1C0F30642A36B05
:10237000013B9A423CD1C0F30660E36B013B9842BB
:1023800038D11D4B5B6BC3F3CC03A26C9A4201D1D5
:10239000002022E0184AD36A23F00103D36203F03D
:1023A00011F8054603F00EF8A842FBD0124A516B13
:1023B000124B0B40A16C43EAC1035363D36A43F051
:1023C0000103D362002008E001207047012004E0EF
:1023D000012002E0012000E0002038BD0120FCE7E0
:1023E0000120FAE70120F8E70120F6E70120F4E7F1
:1023F0000120F2E70120F0E7004402580700FFFF48
:10240000744B1B6903F03803102B00F0DE80182B8F
:1024100010D00BB1704870476E4B1B6813F0200F43
:1024200000F0D5806B4B1868C0F3C1006B4B23FAEA
:1024300000F0704710B4674A916A01F00301946A92
:10244000C4F30510D36A03F0010C536BC3F3CC0340
:102450000CFB03F307EE903AF8EE677A14F47C7FF6
:1024600000F09380012965D0022900F09180E1B14C
:1024700007EE100AF8EE476A9FED596A86EE267A53
:10248000544B1B6BC3F3080306EE903AF8EE666AF2
:102490009FED546A67EE867A76EEA77AF7EE006AC9
:1024A00077EEA67A27EE277A60E0136813F0200F04
:1024B00023D011461268C2F3C102484BD34007EE45
:1024C000103AF8EE476A07EE100AB8EE476A86EE51
:1024D000867A0B6BC3F3080306EE903AF8EE666A51
:1024E0009FED406A67EE867A76EEA77AF7EE006A8D
:1024F00077EEA67A27EE277A38E007EE100AF8EE94
:10250000476A9FED396A86EE267A324B1B6BC3F31E
:10251000080306EE903AF8EE666A9FED326A67EEBF
:10252000867A76EEA77AF7EE006A77EEA67A27EE3D
:10253000277A1BE007EE100AF8EE476A9FED286A3B
:1025400086EE267A234B1B6BC3F3080306EE903A04
:10255000F8EE666A9FED236A67EE867A76EEA77AD2
:10256000F7EE006A77EEA67A27EE277A194B1B6BF7
:10257000C3F34623013307EE903AF8EE677AC7EECD
:10258000276AFCEEE67A17EE900A5DF8044B704776
:1025900007EE100AF8EE476A9FED146A86EE267A77
:1025A0000C4B1B6BC3F3080306EE903AF8EE666A19
:1025B0009FED0C6A67EE867A76EEA77AF7EE006AF0
:1025C00077EEA67A27EE277AD0E7094870470348C6
:1025D000704700BF0044025800093D000090D0033E
:1025E0000024744A000000390024744C001BB74BCF
:1025F00000366E01002800F0328170B50D460446A9
:102600009B4B1B6803F00F038B420BD2984A136855
:1026100023F00F030B431360136803F00F038B4287
:1026200040F01F81236813F0040F0CD02269914BF6
:102630009B6903F070039A4205D98E498B6923F098
:1026400070031A438A61236813F0080F0CD0626983
:10265000884BDB6903F070039A4205D98549CB6941
:1026600023F070031A43CA61236813F0100F0CD0D3
:10267000A269804BDB6903F4E0639A4205D97D4986
:10268000CB6923F4E0631A43CA61236813F0200F77
:102690000CD0E269774B1B6A03F070039A4205D9AC
:1026A00074490B6A23F070031A430A62236813F01B
:1026B000020F0CD0E2686F4B9B6903F00F039A4244
:1026C00005D96C498B6923F00F031A438A6123688B
:1026D00013F0010F41D0674A936923F47063A16836
:1026E0000B4393616368022B0AD0032B27D0012B85
:1026F0002CD0604A126812F0040F06D10120ADE020
:10270000126812F4003F00F0AE805A490A6922F0C4
:10271000070213430B6102F055FE0646554B1B6939
:1027200003F038036268B3EBC20F16D002F04AFE22
:10273000801B41F288339842F0D903208EE04D4A45
:10274000126812F0007FE0D1012087E0494A126848
:1027500012F4807FD9D1012080E0236813F0020FAA
:102760000CD0E268434B9B6903F00F039A4205D2F9
:1027700040498B6923F00F031A438A613C4B1B6865
:1027800003F00F03AB420AD9394A136823F00F0351
:102790002B431360136803F00F03AB4265D123682A
:1027A00013F0040F0CD02269324B9B6903F07003C5
:1027B0009A4205D22F498B6923F070031A438A612C
:1027C000236813F0080F0CD062692A4BDB6903F011
:1027D00070039A4205D22749CB6923F070031A434C
:1027E000CA61236813F0100F0CD0A269214BDB697A
:1027F00003F4E0639A4205D21E49CB6923F4E063F7
:102800001A43CA61236813F0200F0CD0E269194BF8
:102810001B6A03F070039A4205D216490B6A23F033
:1028200070031A430A62FFF7EBFD12498B69C3F389
:102830000323114AD35C03F01F03D8408B6903F0D4
:102840000F03D35C03F01F0320FA03F30B4A13605A
:102850000B4B18600B4B1868FEF7A4FD70BD0120F0
:1028600070470120FAE70120F8E70120F6E700BFF2
:102870000020005200440258800A01080C00002485
:10288000080000240400002408B5FFF7B9FD0B4A36
:102890009369C3F303230A49CB5C03F01F0320FAB7
:1028A00003F3926902F00F02885C00F01F0023FA24
:1028B00000F0044A1060044A136008BD0044025846
:1028C000800A01080C0000240800002408B5FFF766
:1028D000DBFF054BDB69C3F30213044AD35C03F04F
:1028E0001F03D84008BD00BF00440258800A0108F9
:1028F00008B5FFF7C9FF054BDB69C3F30223044AA0
:10290000D35C03F01F03D84008BD00BF0044025849
:10291000800A01083F230360114B1A6902F0070285
:1029200042609A6902F4706282609A6902F00F0252
:10293000C2609A6902F070020261DA6902F0700204
:102940004261DA6902F4E06282611B6A03F070039B
:10295000C361044B1B6803F00F030B60704700BF9B
:102960000044025800200052404B9B6A03F00303CE
:10297000032B79D070B505460E463C4A136823F008
:102980008063136002F01EFD0446384B1B6813F091
:10299000006F06D002F016FD031B022BF5D90320B1
:1029A00070BD324B9A6A22F47C32296842EA0132C5
:1029B0009A626A68013AC2F30802A96801394902B9
:1029C00089B20A43E9680139090401F4FE010A43A6
:1029D00029690139090601F0FE410A439A63DA6A5E
:1029E00022F0C00269690A43DA62DA6A22F0200240
:1029F000A9690A43DA62DA6A22F01002DA62D96B54
:102A00001B4A0A40E96942EAC102DA63DA6A42F023
:102A10001002DA62C6B91A46DB6A43F40023D362B5
:102A2000124A136843F08063136002F0CBFC044643
:102A30000E4B1B6813F0006F14D102F0C3FC001B97
:102A40000228F5D90320ABE7012E05D0074AD36A47
:102A500043F40013D362E3E7044AD36A43F48013D8
:102A6000D362DDE700209BE7012070470044025855
:102A70000700FFFF404B9B6A03F00303032B79D051
:102A800070B505460E463C4A136823F08053136028
:102A900002F098FC0446384B1B6813F0005F06D028
:102AA00002F090FC031B022BF5D9032070BD324BC2
:102AB0009A6A22F07C72296842EA01529A626A6834
:102AC000013AC2F30802A9680139490289B20A43EE
:102AD000E9680139090401F4FE010A432969013951
:102AE000090601F0FE410A431A64DA6A22F44062E0
:102AF00069690A43DA62DA6A22F40072A9690A4350
:102B0000DA62DA6A22F48072DA62596C1B4A0A408D
:102B1000E96942EAC1025A64DA6A42F48072DA620E
:102B2000C6B91A46DB6A43F48003D362124A1368BB
:102B300043F08053136002F045FC04460E4B1B68C3
:102B400013F0005F14D102F03DFC001B0228F5D900
:102B50000320ABE7012E05D0074AD36A43F0807308
:102B6000D362E3E7044AD36A43F40003D362DDE7A8
:102B700000209BE701207047004402580700FFFF38
:102B8000F8B50446036813F0006F30D0436EB3F518
:102B9000001F26D00ED8EBB1B3F5801F07D102215C
:102BA0000830FFF7E1FE054645B12E4621E001263B
:102BB00035461EE0B3F5401F09D100259F4A136D2D
:102BC00023F44013616E0B431365002611E00126C8
:102BD00035460EE0994AD36A43F40033D3620025A8
:102BE000ECE702212830FFF745FF0546DCE7002629
:102BF0003546236813F4807F27D0A36D042B20D89B
:102C0000DFE803F00311180808008C4AD36A43F484
:102C10000033D362C5B9894A136D23F00703A16D50
:102C20000B43136511E0002104F10800FFF79CFE3F
:102C30000546EFE7002104F12800FFF71BFF0546DA
:102C4000E8E70126354600E02E46236813F4806F3E
:102C500022D0D4F8A430B3F5800F3FD00DD8BBB349
:102C6000B3F5001F06D1002104F10800FFF77CFE38
:102C7000054608E0012635460EE0B3F5000F02D008
:102C8000B3F5200F1ED185BB6C4A936D23F460030E
:102C9000D4F8A4100B439365236813F4006F39D064
:102CA000D4F8A830B3F1007F5AD023D8002B51D0EC
:102CB000B3F1807F1BD1002104F10800FFF754FE1F
:102CC00005461DE0B3F5C00FDDD001263546E3E72C
:102CD0005A4AD36A43F40033D362D4E7002104F1A3
:102CE0002800FFF7C7FE0546CDE72E46D4E70126AC
:102CF00035460FE0B3F1806F02D0B3F1A06F23D15E
:102D0000002D34D14D4A936D23F0E063D4F8A81020
:102D10000B439365236813F0007F31D0E36C202BC5
:102D200042D029D833B1102B23D1444AD36A43F47B
:102D30000033D362002D3ED1404AD36C23F03003E0
:102D4000E16C0B43D3641BE0B3F1407FD8D0012684
:102D50003546DFE7394AD36A43F40033D362CFE71D
:102D6000002104F12800FFF785FE0546C8E72E463E
:102D7000D0E70126354603E0302BDBD0012635466F
:102D8000236813F4805F3BD0E36DB3F5005F2FD071
:102D900016D83BB3B3F5805F0FD1002104F10800D2
:102DA000FFF7E2FD054611E0022104F10800FFF7FC
:102DB000DBFD0546BEE72E46E2E7012635461FE06D
:102DC000B3F5405F02D0B3F5804F08D1BDB91B4ABF
:102DD000136D23F4E043E16D0B43136510E001260E
:102DE00035460DE0154AD36A43F40033D362EDE76C
:102DF000002104F12800FFF73DFE0546E6E72E46D8
:102E0000236813F4005F29D0236EB3F5003F44D04C
:102E100019D843B1B3F5803F12D1012104F1080064
:102E2000FFF7A2FD0546002D3ED1044A136D23F4A1
:102E3000E023216E0B43136510E000BF00440258ED
:102E4000012635460AE0B3F5802FECD0B3F5A02F6C
:102E5000E9D0B3F5403FE6D001263546236813F4A8
:102E6000804F31D0D4F8AC30B3F1005F45D020D8DA
:102E700043B1B3F1805F19D1012104F10800FFF7DC
:102E800073FD0546002D3FD18F4A936D23F0E0433B
:102E9000D4F8AC100B43936516E0012104F128002F
:102EA000FFF7E8FD0546BEE72E46D7E70126354683
:102EB0000AE0B3F1804FE5D0B3F1A04FE2D0B3F117
:102EC000405FDFD001263546236813F4004F09D058
:102ED000E36EB3F1805F19D0B3F1005F24D0D3B1BA
:102EE00001263546236813F0807F33D0A36C032B73
:102EF0005BD8DFE803F027225327012104F12800E3
:102F0000FFF7B8FD0546BDE72E46DDE76E4AD36AFA
:102F100043F40033D36275B96B4A136D23F0405309
:102F2000E16E0B431365DDE7012104F10800FFF7B3
:102F30001BFD0546EFE72E46D4E7634AD36A43F408
:102F40000033D362A5BB604AD36C23F00303A16CAA
:102F50000B43D364236813F4800F2BD1236813F041
:102F6000010F00F0A380A36F282B00F29D80DFE803
:102F700003F08B9B9B9B9B9B9B9B859B9B9B9B9B0A
:102F80009B9B949B9B9B9B9B9B9B8B9B9B9B9B9BA8
:102F90009B9B8B9B9B9B9B9B9B9B8B00022104F190
:102FA0000800FFF7E1FC0546CCE701263546D1E7EE
:102FB0002E46CFE7454A136843F48073136002F04E
:102FC00001FA0746414B1B6813F4807F05D102F0DC
:102FD000F9F9C01B6428F5D90325002D4AD13A4BD5
:102FE0001B6FD4F8B020534013F4407F0CD0364B05
:102FF0001A6F22F44072196F41F480311967196F0A
:1030000021F4803119671A67D4F8B030B3F5807FA6
:1030100015D08DBBD4F8B03003F44072B2F5407FC8
:103020001ED0294A136923F47C53136126490B6F80
:10303000D4F8B020C2F30B0213430B678EE702F003
:10304000C1F90746204B1B6F13F0020FE1D102F0CC
:10305000B9F9C01B41F288339842F3D90325D8E768
:103060001948026922F47C52194901EA13131343E7
:103070000361DBE72E4671E72E466FE7012104F17D
:103080000800FFF771FC0546E5B90F4A536D23F0C0
:103090003803A16F0B43536508E0012104F12800B8
:1030A000FFF7E8FC0546EFE701263546236813F0F5
:1030B000020F1DD0636F052B2ED8DFE803F0110B34
:1030C000261111112E46F1E700440258004802581B
:1030D000CFFFFF00012104F10800FFF745FC054682
:1030E000EDB9A94A536D23F00703616F0B43536594
:1030F000236813F0040F23D0D4F89030052B45D863
:10310000DFE803F0150F3D151515012104F1280026
:10311000FFF7B0FC0546E3E701263546E8E72E4613
:10312000E6E7012104F10800FFF71EFC054685BB18
:10313000954A936D23F00703D4F890100B439365E1
:10314000236813F0200F34D0D4F88C30B3F1005F33
:103150004ED023D843B1B3F1805F1CD1002104F1DC
:103160000800FFF701FC0546002D48D1864A536D43
:1031700023F0E043D4F88C100B43536519E0012190
:1031800004F12800FFF776FC0546D0E70126354616
:10319000D6E72E46D4E7012635460AE0B3F1804F44
:1031A000E2D0B3F1A04FDFD0B3F1405FDCD0012615
:1031B0003546236813F0400F31D0D4F89830B3F57A
:1031C000006F4DD020D843B1B3F5806F19D10021E5
:1031D00004F10800FFF7C8FB0546002D47D16A4AF5
:1031E000936D23F4E053D4F898100B43936516E0E5
:1031F000022104F12800FFF73DFC0546B4E72E4606
:10320000D7E7012635460AE0B3F5805FE5D0B3F590
:10321000A05FE2D0B3F5406FDFD0012635462368CA
:1032200013F0800F33D0D4F89C30B3F5804F00F00A
:10323000A18021D843B1B3F5005F1AD1002104F178
:103240000800FFF791FB0546002D40F09A804E4A9A
:10325000936D23F46043D4F89C100B43936516E000
:10326000022104F12800FFF705FC0546B5E72E46CC
:10327000D5E7012635460AE0B3F5004FE4D0B3F5B3
:10328000204FE1D0B3F5C04FDED00126354623688C
:1032900013F0080F0CD0D4F88030B3F5805F75D0F0
:1032A000394A536D23F44053D4F880100B435365CF
:1032B000236813F0100F0CD0D4F89430B3F5807F4E
:1032C0006DD0314A936D23F44073D4F894100B43BE
:1032D0009365236813F4002F0BD0D4F8A030B3F516
:1032E000803F75D0B3F5003F68D0002B60D0012639
:1032F0003546236813F4802F0CD0D4F88430B3F50E
:10330000001F7DD0B3F5401F70D0B3F5801F68D08B
:1033100001263546236813F4803F08D0236D002B27
:1033200077D0B3F5803F00F08280012635462368D0
:1033300013F0005F40F08480236813F4003F00F036
:103340008C80E36FB3F5807F00F0DF8040F28280F5
:10335000B3F5007F03D0B3F5407F40F0D480002D5B
:1033600040F0D980084A536D23F44073E16F0B435A
:10337000536572E0022104F12800FFF77BFB05464C
:1033800062E72E4683E700BF00440258022104F1A1
:103390002800FFF76FFB002882D0012680E702217A
:1033A00004F12800FFF766FB00288AD0012688E791
:1033B000002104F10800FFF7D7FA05467DB9724AEB
:1033C000936D23F44033D4F8A0100B43936590E73A
:1033D000022104F12800FFF74DFB0546EEE72E46DB
:1033E00087E7694AD36A43F40033D3627DB9664AFA
:1033F000536D23F44013D4F884100B43536589E7CD
:10340000012104F12800FFF735FB0546EEE72E46C3
:1034100080E75D4AD36A43F40033D36275B95A4AF0
:10342000D36C23F48033216D0B43D3647FE70221F7
:1034300004F10800FFF798FA0546EFE72E4676E715
:10344000022104F12800FFF715FB00283FF474AFB8
:10345000012671E7002B82D00126236813F4801F18
:1034600006D0494A136D23F00043216F0B431365C7
:10347000236813F4001F06D0434A136D23F08073B2
:10348000A16E0B431365236813F0804F09D03E4BA8
:103490001A6922F400421A611A69D4F8B4100A4376
:1034A0001A612368002B06DA374AD36C23F04053A5
:1034B000616D0B43D364236813F4000F07D0324AC5
:1034C000536D23F44003D4F888100B4353656368AD
:1034D00013F0010F21D1636813F0020F26D1636846
:1034E00013F0040F2BD1636813F0080F30D1636819
:1034F00013F0100F35D1636813F0200F3AD106B1E5
:1035000001263046F8BD0126A7E71F4AD36A43F4D7
:103510000033D36223E72E469FE7002104F1080021
:10352000FFF722FA0028D6D00646D4E7012104F19D
:103530000800FFF719FA0028D1D00646CFE702218C
:1035400004F10800FFF710FA0028CCD00646CAE7BD
:10355000002104F12800FFF78DFA0028C7D00646A5
:10356000C5E7012104F12800FFF784FA0028C2D042
:103570000646C0E7022104F12800FFF77BFA002885
:10358000BDD00646BBE700BF0044025808B5FFF7B0
:103590007BF9054B1B6AC3F30213044AD35C03F0A7
:1035A0001F03D84008BD00BF00440258800A01082C
:1035B00010B5774A916A946AC4F3053ED36AC3F39F
:1035C000001CD36BC3F3CC030CFB03F314F47C3F5C
:1035D00000F0D88001F0030107EE903AF8EE677A28
:1035E000012965D0022900F0B080E1B107EE10EAB0
:1035F000B8EE477A9FED676AC6EE076A644B9B6B2D
:10360000C3F3080307EE103AB8EE477A9FED626AFB
:1036100067EE867A77EE277AB7EE007A77EE877ACA
:1036200066EEA76A60E0136813F0200F23D01146FE
:103630001268C2F3C102594BD34007EE103AB8EEFC
:10364000477A06EE90EAB8EE666AC7EE066A8B6BBA
:10365000C3F3080307EE103AB8EE477A9FED4E6ABF
:1036600067EE867A77EE277AB7EE007A77EE877A7A
:1036700066EEA76A38E007EE10EAB8EE477A9FEDEB
:10368000486AC6EE076A424B9B6BC3F3080307EE1A
:10369000103AB8EE477A9FED406A67EE867A77EE89
:1036A000277AB7EE007A77EE877A66EEA76A1BE094
:1036B00007EE10EAB8EE477A9FED366AC6EE076A63
:1036C000334B9B6BC3F3080307EE103AB8EE477A0F
:1036D0009FED316A67EE867A77EE277AB7EE007A49
:1036E00077EE877A66EEA76A294A936BC3F346237F
:1036F00007EE103AB8EE477AB7EE006A37EE067A70
:10370000C6EE877AFCEEE77AC0ED007A936BC3F3DE
:10371000064307EE103AB8EE477A37EE067AC6EE61
:10372000877AFCEEE77AC0ED017A936BC3F3066308
:1037300007EE903AF8EE677A77EE867A86EEA77A09
:10374000BCEEC77A80ED027A10BD07EE10EAB8EE43
:10375000477A9FED146AC6EE076A0D4B9B6BC3F365
:10376000080307EE103AB8EE477A9FED0B6A67EE52
:10377000867A77EE277AB7EE007A77EE877A66EE6A
:10378000A76AB1E70023036043608360DCE700BF02
:10379000004402580024744A000000390090D0030D
:1037A0000024744C001BB74B10B5774A916A946A99
:1037B000C4F3055ED36AC3F3002C536CC3F3CC038C
:1037C0000CFB03F314F07C7F00F0D88001F00301C0
:1037D00007EE903AF8EE677A012965D0022900F0E9
:1037E000B080E1B107EE10EAB8EE477A9FED676A64
:1037F000C6EE076A644B1B6CC3F3080307EE103A6E
:10380000B8EE477A9FED626A67EE867A77EE277A9E
:10381000B7EE007A77EE877A66EEA76A60E0136803
:1038200013F0200F23D011461268C2F3C102594B86
:10383000D34007EE103AB8EE477A06EE90EAB8EEBB
:10384000666AC7EE066A0B6CC3F3080307EE103A0C
:10385000B8EE477A9FED4E6A67EE867A77EE277A62
:10386000B7EE007A77EE877A66EEA76A38E007EE61
:1038700010EAB8EE477A9FED486AC6EE076A424BF7
:103880001B6CC3F3080307EE103AB8EE477A9FEDBE
:10389000406A67EE867A77EE277AB7EE007A77EE9F
:1038A000877A66EEA76A1BE007EE10EAB8EE477A61
:1038B0009FED366AC6EE076A334B1B6CC3F30803F1
:1038C00007EE103AB8EE477A9FED316A67EE867AD6
:1038D00077EE277AB7EE007A77EE877A66EEA76AF8
:1038E000294A136CC3F3462307EE103AB8EE477A21
:1038F000B7EE006A37EE067AC6EE877AFCEEE77A14
:10390000C0ED007A136CC3F3064307EE103AB8EE2D
:10391000477A37EE067AC6EE877AFCEEE77AC0ED94
:10392000017A136CC3F3066307EE903AF8EE677AF8
:1039300077EE867A86EEA77ABCEEC77A80ED027AB9
:1039400010BD07EE10EAB8EE477A9FED146AC6EE96
:10395000076A0D4B1B6CC3F3080307EE103AB8EE71
:10396000477A9FED0B6A67EE867A77EE277AB7EE95
:10397000007A77EE877A66EEA76AB1E700230360E4
:1039800043608360DCE700BF004402580024744AAF
:10399000000000390090D0030024744C001BB74B8A
:1039A000F0B583B000236BE085685E000324B4406B
:1039B00025EA0405CC68B4402C438460446824EABA
:1039C0000C0C4C68C4F300149C4044EA0C044460A2
:1039D00068E0DD08083550F8256003F007044FEA79
:1039E000840C0F2404FA0CF426EA040E0C6904FA81
:1039F0000CF444EA0E0440F825406BE0092400E092
:103A0000002404FA0EF42C430CF1020C664D45F828
:103A10002C404FF0B0442568D44325EA02064F6895
:103A200017F4801F01D042EA05064FF0B0452E6022
:103A30006D6804EA05064F6817F4001F01D042EADA
:103A400005064FF0B0456E60D5F8845004EA0506CF
:103A50004F6817F4003F01D042EA05064FF0B04529
:103A6000C5F88460D5F880502C404E6816F4803F2D
:103A700001D042EA05044FF0B042C2F88040013361
:103A80000A6832FA03F400F08C804FF0010C0CFA53
:103A900003FC1CEA0202F2D04C6804F00304013C6F
:103AA000012C81D94C6804F00304032C0CD0C468A9
:103AB0005D004FF0030C0CFA05FC24EA0C0C8C683A
:103AC000AC4044EA0C04C4604C6804F00304022CCB
:103AD0003FF47FAF04684FEA430E4FF0030C0CFA3B
:103AE0000EFC24EA0C0C4C6804F0030404FA0EF4F7
:103AF00044EA0C0404604C6814F4403FBFD02B4CE3
:103B0000D4F8F45045F00205C4F8F450D4F8F44069
:103B100004F002040194019C4FEA930C0CF102059D
:103B2000214C54F8255003F003044FEA840E0F246F
:103B300004FA0EF425EA04051D4CA0423FF460AFE0
:103B400004F58064A0421ED004F58064A0421CD01D
:103B500004F58064A0421AD004F58064A04218D015
:103B600004F58064A04216D004F58064A04214D00D
:103B700004F58064A04212D004F50064A0423FF432
:103B80003DAF0A243DE701243BE7022439E7032443
:103B900037E7042435E7052433E7062431E7072413
:103BA0002FE703B0F0BD00BF0004005800440258E6
:103BB000000002580AB181617047090481617047B1
:103BC000F0B4876D0468664E664DAC4218BFB442CF
:103BD00042D01835AC423FD01835AC423CD01835F5
:103BE000AC4239D01835AC4236D01835AC4233D05F
:103BF0001835AC4230D005F55675AC422CD018358E
:103C0000AC4229D01835AC4226D01835AC4223D06E
:103C10001835AC4220D01835AC421DD01835AC4216
:103C20001AD01835AC4217D04F4DAC4214D01435D1
:103C3000AC4211D01435AC420ED01435AC420BD08E
:103C40001435AC4208D01435AC4205D01435AC4222
:103C500002D01435AC4207D1446E856E6560C46EE7
:103C600014B1046F456F656004683D4E3D4DAC4234
:103C700018BFB44252D01835AC424FD01835AC42C0
:103C80004CD01835AC4249D01835AC4246D0183526
:103C9000AC4243D01835AC4240D005F55675AC4225
:103CA0003CD01835AC4239D01835AC4236D0183536
:103CB000AC4233D01835AC4230D01835AC422DD0A0
:103CC0001835AC422AD01835AC4227D0264E274DA5
:103CD000AC4218BFB44211D0254DAC420ED01435C1
:103CE000AC420BD01435AC4208D01435AC4205D0F0
:103CF0001435AC4202D01435AC4224D1C46D04F06A
:103D00001F050124AC407C60046863608368402B1D
:103D100020D0036899600368DA6014E0C46D04F091
:103D20001F0C3F2404FA0CF4BC6005682C6824F4D2
:103D300080242C60046863608368402B05D003688E
:103D400099600368DA60F0BC704703689A600368A2
:103D5000D960F8E703689A600368D960F3E700BFA9
:103D60001000024028000240085402581C54025817
:103D70003054025803682749274A934218BF8B42A0
:103D80002FD0183293422CD01832934229D01832B7
:103D9000934226D01832934223D01832934220D037
:103DA000183293421DD002F55672934219D0183240
:103DB000934216D01832934213D01832934210D047
:103DC000183293420DD0183293420AD018329342DF
:103DD00007D01832934204D023F0FF038365806D2F
:103DE000704710B4D9B210390C4AA2FB0142C2F399
:103DF00002120B4CA25CC2655F2907D9094A1A401E
:103E000004328265806D5DF8044B7047054A1A40A4
:103E10008265F7E71000024028000240ABAAAAAA78
:103E2000680A010800FCFFFF83699BB9836A012BC4
:103E30000AD0022B02D00BB100207047C36A13F0E6
:103E4000807F2AD100207047C36AB3F1C07F26D09B
:103E500000207047B3F5005F0AD0836A022B26D991
:103E6000032B26D1C36A13F0807F24D10020704732
:103E7000836A032B03D8DFE803F01404140A00203C
:103E80007047C36A13F0807F0DD100207047C36A6A
:103E9000B3F1C07F09D00020704701207047012096
:103EA00070470120704701207047012070470120B2
:103EB00070470020704701207047000003682249C6
:103EC000224A934218BF8B4228D01432934225D005
:103ED0001432934222D0143293421FD014329342B0
:103EE0001CD01432934219D01432934216D0DAB255
:103EF000103A1749A1FB0212120916491944A829C0
:103F00001FD9154B13449B000366144B436602F004
:103F10001F02012303FA02F282667047DBB2083BFC
:103F20000F4AA2FB03230F4A02EB13129200026610
:103F30000D4A4266C3F30413012202FA03F38366B7
:103F400070470832DDE700BF085402581C5402587D
:103F5000ABAAAAAAF0FBFDBF0082001080080240B5
:103F6000CDCCCCCC009600168058025801794A1E60
:103F7000072A2CD830B40368154D164CA34218BF3D
:103F8000AB4218D01434A34215D01434A34212D03B
:103F90001434A3420FD01434A3420CD01434A342DF
:103FA00009D01434A34206D00B4B0B449B00C366CC
:103FB0000A4B036705E00A4B0B449B00C366094BA1
:103FC0000367012303FA02F2426730BC704770476F
:103FD000085402581C5402583F8200104009024005
:103FE0003F9600164059025870B5044601F0EAF9B0
:103FF000002C00F0B381054623685349534A93428D
:1040000018BF8B420CBF0122002250D030318B42AE
:104010004DD018318B424AD018318B4247D01831DD
:104020008B4244D018318B4241D018318B423ED064
:1040300001F556718B423AD018318B4237D0183186
:104040008B4234D018318B4231D018318B422ED074
:1040500018318B422BD018318B4228D018318B422B
:1040600025D03B493B4A934218BF8B4200F02E813A
:10407000394A934200F02A811432934200F026819B
:104080001432934200F022811432934200F01E81D8
:104090001432934200F01A811432934200F01681D8
:1040A00040236365032384F8353001204AE0022170
:1040B00084F83510002184F834107ABB274A9342E3
:1040C0002CD01832934229D01832934226D018327D
:1040D000934223D01832934220D0183293421DD0FD
:1040E00002F55672934219D01832934216D0183204
:1040F000934213D01832934210D0183293420DD00D
:10410000183293420AD01832934207D018329342A1
:1041100004D01A6822F001021A6003E01A6822F043
:1041200001021A6023681A6812F0010F18D001F01A
:1041300049F9431B052BF5D920236365032384F834
:104140003530012070BD00BF100002402800024041
:10415000085402581C54025830540258400002407F
:104160001A687F481040A168E2680A4321690A433F
:1041700061690A43A1690A43E1690A43216A0A4362
:104180000243616A042900F096806168A1F1290563
:10419000A1F13F00032888BF052D0AD9A1F14700EE
:1041A000012806D9A1F14F00032802D97439032947
:1041B00001D842F480121A602668756925F0070557
:1041C000636A1D43042B08D1A36A1D43E36A23B12C
:1041D0002046FFF729FE002872D175612046FFF7BF
:1041E000C9FDE36D03F01F023F2393408360236802
:1041F0005C495D4A934218BF8B4242D018329342C9
:104200003FD0183293423CD01832934239D0183202
:10421000934236D01832934233D01832934230D082
:1042200002F5567293422CD01832934229D018329C
:10423000934226D01832934223D01832934220D092
:10424000183293421DD0183293421AD0183293423A
:1042500017D0464A934214D01432934211D01432EC
:1042600093420ED0143293420BD01432934208D0B2
:104270001432934205D01432934202D01432934246
:1042800013D12046FFF71AFEA368802B59D0236E66
:1042900022791A60636EA26E5A606368013B072B35
:1042A00052D90023E366236763670020606501231A
:1042B00084F8353046E7E16A206B01430A4364E73E
:1042C00040236365012084F835003BE7022284F82F
:1042D0003520002284F834201A6825491140A2684C
:1042E000402A2CD0802A27D00022E06842EAD0025F
:1042F000206942EAD002606942EAD002A06942EA3B
:10430000D002E06942EAD002206A42EA10120A436F
:104310001A602268174B1344174AA2FB03231B0998
:104320009B00E3652046FFF725FDE26D02F01F01CB
:1043300001228A4042605AE74FF48042D5E71022BA
:10434000D3E700236360A2E72046FFF70FFEE36E8A
:1043500000221A60236F626F5A60A6E70120F1E61F
:104360003F8010FE1000024028000240085402580E
:104370000F00FEFFF8ABFDA7CDCCCCCC002800F0A1
:104380003E8170B5044690F83400012800F0398170
:10439000012084F8340094F83500C0B2012807D019
:1043A0004FF400636365002384F83430012070BD4E
:1043B000022084F83500002060652068924E934DFD
:1043C000A84218BFB0422FD01835A8422CD01835BB
:1043D000A84229D01835A84226D01835A84223D0A3
:1043E0001835A84220D01835A8421DD005F55675BD
:1043F000A84219D01835A84216D01835A84213D0B3
:104400001835A84210D01835A8420DD01835A8424A
:104410000AD01835A84207D01835A84204D005683C
:1044200025F00105056003E0056825F0010505603C
:104430002046FFF7C5FB23687349744A934218BFAF
:104440008B4238D01832934235D01832934232D052
:10445000183293422FD0183293422CD01832934204
:1044600029D01832934226D002F55672934222D0B8
:10447000183293421FD0183293421CD01832934204
:1044800019D01832934216D01832934213D01832F2
:10449000934210D0183293420DD01A6822F00E02C7
:1044A00042F00A021A60236C93B12268136843F049
:1044B000040313600CE01A6822F01E0242F0160298
:1044C0001A60236C23B12268136843F00803136059
:1044D00023684D494D4A934218BF8B4242D018324F
:1044E00093423FD0183293423CD01832934239D095
:1044F0001832934236D01832934233D01832934256
:1045000030D002F5567293422CD01832934229D003
:104510001832934226D01832934223D01832934255
:1045200020D0183293421DD0183293421AD018323C
:10453000934217D0364A934214D01432934211D08A
:10454000143293420ED0143293420BD01432934261
:1045500008D01432934205D01432934202D0143260
:1045600093420ED1236E1A6812F4803F03D01A686A
:1045700042F480721A60E36E1BB11A6842F48072D2
:104580001A6023682049214A934218BF8B4230D0D9
:10459000183293422DD0183293422AD018329342C7
:1045A00027D01832934224D01832934221D01832A7
:1045B00093421ED002F5567293421AD0183293429B
:1045C00017D01832934214D01832934211D01832B7
:1045D00093420ED0183293420BD01832934208D037
:1045E0001832934205D01A6842F001021A60002086
:1045F000DDE61A6842F001021A600020D7E60120C9
:1046000070470220D3E600BF10000240280002409D
:104610000854025870B5044600F0D4FE002C00F097
:104620009181054694F83530DBB2022B06D0802309
:104630006365002384F83430012070BD23688C4901
:104640008C4A934218BF8B4230D0183293422DD0FF
:10465000183293422AD01832934227D0183293420C
:1046600024D01832934221D0183293421ED002F542
:10467000567293421AD01832934217D0183293428E
:1046800014D01832934211D0183293420ED01832FF
:1046900093420BD01832934208D01832934205D07F
:1046A0001A6822F00E021A60266809E01A6822F0E1
:1046B0001E021A602268536923F080035361266842
:1046C00023686B496B4A934218BF8B4242D0183221
:1046D00093423FD0183293423CD01832934239D0A3
:1046E0001832934236D01832934233D01832934264
:1046F00030D002F5567293422CD01832934229D012
:104700001832934226D01832934223D01832934263
:1047100020D0183293421DD0183293421AD018324A
:10472000934217D0544A934214D01432934211D07A
:10473000143293420ED0143293420BD0143293426F
:1047400008D01432934205D01432934202D014326E
:10475000934204D1226E136823F48073136023689C
:104760004349444A934218BF8B422FD01832934298
:104770002CD01832934229D01832934226D01832C6
:10478000934223D01832934220D0183293421DD046
:1047900002F55672934219D01832934216D018324D
:1047A000934213D01832934210D0183293420DD056
:1047B000183293420AD01832934207D018329342EB
:1047C00004D01A6822F001021A6003E01A6822F08D
:1047D00001021A60336813F0010F0ED000F0F2FDF1
:1047E000431B052BF6D920236365032384F835305A
:1047F000002384F8343001201FE723681C491D4A38
:10480000934218BF8B4239D01832934236D01832B7
:10481000934233D01832934230D0183293422DD085
:10482000183293422AD01832934227D002F556729A
:10483000934223D01832934220D0183293421DD095
:10484000183293421AD01832934217D0183293423A
:1048500014D01832934211D0183293420ED0A16D69
:10486000E36D03F01F02012393404B600DE000BF96
:10487000100002402800024008540258A16DE36D68
:1048800003F01F023F2393408B6023682E492F4A79
:10489000934218BF8B4242D0183293423FD0183215
:1048A00093423CD01832934239D01832934236D0DA
:1048B0001832934233D01832934230D002F55672F8
:1048C00093422CD01832934229D01832934226D0EA
:1048D0001832934223D01832934220D01832934298
:1048E0001DD0183293421AD01832934217D0184A6A
:1048F000934214D01432934211D0143293420ED00A
:10490000143293420BD01432934208D014329342A3
:1049100005D01432934202D0143293420BD1636E0D
:10492000A26E5A60E36E33B11A6822F480721A6084
:10493000236F626F5A60012384F83530002084F8B9
:1049400034007AE6012078E6100002402800024098
:1049500008540258002800F0298108B5024690F852
:104960003530DBB2022B03D080234365012008BD24
:104970000368904890498B4218BF83420CBF0121C5
:10498000002166D03030834263D01830834260D03B
:10499000183083425DD0183083425AD01830834299
:1049A00057D01830834254D000F55670834250D00F
:1049B000183083424DD0183083424AD01830834299
:1049C00047D01830834244D01830834241D0183049
:1049D00083423ED0183083423BD0196821F00E014B
:1049E00019601368A0F5956073498B4218BF834224
:1049F0006AD072498B4267D018318B4264D018312B
:104A00008B4261D018318B425ED018318B425BD023
:104A100018318B4258D001F556718B4254D0183161
:104A20008B4251D018318B424ED018318B424BD033
:104A300018318B4248D018318B4245D018318B4207
:104A400042D018318B423FD0196821F00101196022
:104A50003EE0042082F8350081BB584A93422DD0B5
:104A6000183293422AD01832934227D018329342F8
:104A700024D01832934221D0183293421ED002F52E
:104A8000567293421AD01832934217D0183293427A
:104A900014D01832934211D0183293420ED01832EB
:104AA00093420BD01832934208D01832934205D06B
:104AB0001A6822F001021A60002058E71A6822F0F2
:104AC00001021A60002052E7196821F00101196003
:104AD0001368384838498B4218BF834242D0183196
:104AE0008B423FD018318B423CD018318B4239D0A9
:104AF00018318B4236D018318B4233D018318B426B
:104B000030D001F556718B422CD018318B4229D010
:104B100018318B4226D018318B4223D018318B426A
:104B200020D018318B421DD018318B421AD0183149
:104B30008B4217D022498B4214D014318B4211D0B2
:104B400014318B420ED014318B420BD014318B4276
:104B500008D014318B4205D014318B4202D014316D
:104B60008B4217D1116E0B6823F480730B60906D2C
:104B7000D36D03F01F0101238B404360536E916E90
:104B80005960D36E33B1196821F480711960136FC5
:104B9000516F5960012382F83530002382F8343098
:104BA000136D2BB1104698470020E0E601207047B6
:104BB0000020DCE6100002402800024040000240D5
:104BC00008540258F0B583B00446002301937D4B8E
:104BD0001D687D4BA3FB0535AD0A876D3E68D7F890
:104BE00000C0036879497A48834218BF8B420CBFE2
:104BF0000120002061D0774A93425ED01832934260
:104C00005BD01832934258D01832934255D01832A4
:104C1000934252D0183293424FD002F556729342CB
:104C20004BD01832934248D01832934245D01832B4
:104C3000934242D0183293423FD0183293423CD034
:104C40001832934239D01832934236D06249634ABF
:104C5000934218BF8B4212D0614A93420FD0143254
:104C600093420CD01432934209D01432934206D0AE
:104C70001432934203D01432934240F061821A6896
:104C8000E16D01F01F010420884010EA0C0F00F0D4
:104C9000A78212F0040F00F0A382786012F4004F94
:104CA00000F05A8212F4803F40F05082A36C002B37
:104CB00000F046822046984742E2E26D02F01F0172
:104CC00008228A40324241D070BB424A93422BD0E4
:104CD0001832934228D01832934225D0183293428A
:104CE00022D0183293421FD0183293421CD002F5C2
:104CF0005672934218D01832934215D0183293420C
:104D000012D0183293420FD0183293420CD018327E
:104D1000934209D01832934206D01832934203D0FE
:104D20001A68C2F3C00202E01A68C2F380026AB1D4
:104D30001A6822F004021A60E36D03F01F020823D0
:104D40009340BB60636D43F001036365E26D02F065
:104D50001F0226FA02F313F0010F47D023681B4805
:104D60001B498B4218BF83423CD018318B4239D04B
:104D700018318B4236D018318B4233D018318B42E8
:104D800030D018318B422DD018318B422AD001F50A
:104D900056718B4226D018318B4223D018318B426A
:104DA00020D018318B421DD018318B421AD01831C7
:104DB0008B4217D018318B4214D018318B4211D04E
:104DC0001B6813E008000024B5814E1B1000024050
:104DD0002800024040000240085402581C54025867
:104DE000305402585B6913F0800F3BD1E36D03F040
:104DF0001F03042202FA03F3334240D0226896488C
:104E000096498A4218BF824235D018318A4232D040
:104E100018318A422FD018318A422CD018318A4258
:104E200029D018318A4226D018318A4223D001F580
:104E300056718A421FD018318A421CD018318A42DA
:104E400019D018318A4216D018318A4213D018313D
:104E50008A4210D018318A420DD018318A420AD0C5
:104E600013680CE0012303FA02F2BA60636D43F0A9
:104E700002036365BAE7126812F0020F3DD1E36DD9
:104E800003F01F03102202FA03F333425FD02268BB
:104E9000714872498A4218BF824234D018318A421E
:104EA00031D018318A422ED018318A422BD0183195
:104EB0008A4228D018318A4225D018318A4222D01D
:104EC00001F556718A421ED018318A421BD0183122
:104ED0008A4218D018318A4215D018318A4212D02D
:104EE00018318A420FD018318A420CD018318A42C8
:104EF00009D01268C2F3800208E0BB60636D43F022
:104F000004036365BBE71268C2F3C002FAB1BB6079
:104F100023681A6812F4802F0DD01B6813F4002F39
:104F200004D1236C9BB12046984710E0A36C73B169
:104F3000204698470BE01A6812F4807F03D11A6864
:104F400022F008021A60236C0BB120469847E36DEB
:104F500003F01F03202202FA03F3334200F0928091
:104F600022683D483D498A4218BF82422ED01831FE
:104F70008A422BD018318A4228D018318A4225D053
:104F800018318A4222D018318A421FD018318A4201
:104F90001CD001F556718A4218D018318A4215D0BA
:104FA00018318A4212D018318A420FD018318A4201
:104FB0000CD018318A4209D018318A4206D01831F3
:104FC0008A4203D01268C2F3400202E01268C2F3C0
:104FD0000012002A56D0BB6094F83530DBB2042BA7
:104FE0000ED023681A6812F4802F39D01B6813F48E
:104FF000002F2CD1636C002B44D02046984741E011
:105000002268136823F0160313602268536923F0A3
:1050100080035361236CB3B12268136823F0080343
:105020001360E36D03F01F023F239340BB60012335
:1050300084F83530002384F83430236D002B7FD082
:10504000204698477CE0A36C002BE5D1E9E7E36BB1
:10505000C3B12046984715E01000024028000240E6
:105060001A6812F4807F09D11A6822F010021A60BF
:10507000012384F83530002384F83430E36B0BB11E
:1050800020469847636D002B5AD0636D13F0010FD3
:1050900052D0042384F8353023689649964A9342C7
:1050A00018BF8B422FD0183293422CD01832934223
:1050B00029D01832934226D01832934223D0183286
:1050C000934220D0183293421DD002F5567293427B
:1050D00019D01832934216D01832934213D0183296
:1050E000934210D0183293420DD0183293420AD016
:1050F0001832934207D01832934204D01A6822F033
:1051000001021A6003E01A6822F001021A60019B92
:1051100001330193AB4204D823681B6813F0010FDD
:10512000F5D123681B6813F0010F0BD0032384F81B
:105130003530002384F83430E36C0BB120469847B7
:1051400003B0F0BD012384F83530F2E7236C002B67
:10515000F6D020469847F3E712F0200F3AD12368A3
:105160006449654A934218BF8B422FD0183293424C
:105170002CD01832934229D01832934226D01832BC
:10518000934223D01832934220D0183293421DD03C
:1051900002F55672934219D01832934216D0183243
:1051A000934213D01832934210D0183293420DD04C
:1051B000183293420AD01832934207D018329342E1
:1051C00004D01A6822F004021A6003E01A6822F080
:1051D00008021A60236C002BB2D020469847AFE734
:1051E0000220884010EA0C0F60D012F0020F5DD050
:1051F000786012F4004F0ED012F4803F05D1636C3A
:10520000002B9DD0204698479AE7E36B002B97D060
:105210002046984794E712F0200F40D12368354983
:10522000354A934218BF8B422FD0183293422CD06C
:105230001832934229D01832934226D01832934222
:1052400023D01832934220D0183293421DD002F559
:105250005672934219D01832934216D018329342A4
:1052600013D01832934210D0183293420DD0183216
:1052700093420AD01832934207D01832934204D096
:105280001A6822F00A021A6003E01A6822F0140277
:105290001A60012384F83530002384F83430E36B3E
:1052A000002B3FF44DAF2046984749E7082000FA0D
:1052B00001F111EA0C0F3FF443AF12F0080F3FF475
:1052C0003FAF1A6822F00E021A60E36D03F01F036D
:1052D000012202FA03F37B60626584F83520002323
:1052E00084F83430E36C002B3FF42AAF2046984713
:1052F00026E700BF1000024028000240134BDB6885
:1053000013F0040F07D1114BDB6803F0070383424E
:105310001AD00120704710B50C4AD36823F0070358
:105320001843D06000F04EF80446084B5B6813F455
:10533000005F07D100F046F8001BB0F57A7FF4D982
:10534000012000E0002010BD0020704700480258F6
:1053500010B50320FCF708FDFDF752F80F498B69E3
:10536000C3F303230E4AD35C03F01F03D8408B69B9
:1053700003F00F03D35C03F01F0320FA03F3094A81
:105380001360094B18600F20FCF70CF810B10124D2
:10539000204610BD0446FBF7EBFFF9E70044025836
:1053A000800A01080C00002408000024034B1B782D
:1053B000034A11680B441360704700BF00000024CB
:1053C00068080024014B1868704700BF6808002473
:1053D00038B50446FFF7F6FF0546B4F1FF3F02D0AB
:1053E000044B1B781C44FFF7EDFF401BA042FAD38F
:1053F00038BD00BF0000002430B4446B0368D3F80C
:1054000084106F4A114041EA8401C3F88410036894
:10541000D3F8841021F47F01856B41EA0541C3F87C
:105420008410836B23440468D4F88810114041EA47
:105430008301C4F888100468D4F8881021F4FE01B0
:10544000C56B41EA0541C4F88810C16B03EB410309
:105450000468D4F8A010114041EA8301C4F8A010F8
:105460000468D4F8A01021F4FE01056C41EA05415E
:10547000C4F8A010016C446C04FB01330468D4F838
:10548000B010114041EA8301C4F8B0100468D4F8A8
:10549000B01021F4FE01856C41EA0541C4F8B0105A
:1054A000816CC46C04FB01330468D4F8AC10114067
:1054B00041EA8301C4F8AC10016D446D04FB013373
:1054C0000468D4F8F010114041EA8301C4F8F010E8
:1054D0000468D4F8F01021F47C11856D41EA05418F
:1054E000C4F8F010816D03EB41030468D4F8C010D8
:1054F0000A4042EA8303C4F8C0300268D2F8C030E0
:1055000023F47C13C16D43EA0143C2F8C030026842
:10551000D2F8C03023F07C53016E43EA0163C2F835
:10552000C030436B274A1A449200C266836B02EB79
:1055300083030367C16B03EBC1034367016C446CD6
:1055400004FB01F103EB81038367816CC46C04FBF2
:1055500001F103EB8103C367016D446D04FB01F1AD
:1055600003EB8103C0F88030816D03EBC103C0F809
:105570008430816EC46D01FB04FC03EB8C03C0F826
:105580008830046E04FB01F103EB8103C0F8903016
:105590000D498B420DD9D0F89C3043F02003C0F860
:1055A0009C30032380F89830012007E0002342F864
:1055B000043BD0F890309342F8D8002030BC7047BC
:1055C0000300FFFF002B0010FCD3004070B54C68B7
:1055D000FCB90D698C6825430C6845EA84450E6A60
:1055E000CC6944EA06648E6934434E693443CE681C
:1055F00044EA0644D0F88460806E00FB03F306EBB7
:10560000830E46F82350CEF804400EF1080E002019
:1056100019E00C698D6825430C68254345F08045E9
:10562000DDE702EB000C9CF803409CF802301B0401
:1056300043EA04639CF8014043EA0423145C2343D7
:105640004EF8043B0430CB68024CE35C8342E8D85C
:1056500070BD00BF700A010830B595B004464C22F9
:10566000A04901A807F028FB002C00F0388123682E
:105670009D4A934220D094F898300BB322689369E6
:1056800023F010039361FFF79DFE054623689A6996
:1056900012F0080F1AD0FFF795FE431B0A2BF5D91D
:1056A000D4F89C3043F00103C4F89C30032384F801
:1056B0009830012015B030BD03F580736360DAE7E0
:1056C00084F899302046FBF7DBFBD7E79A6942F074
:1056D00001029A61FFF776FE054623689A6912F087
:1056E000010F0FD1FFF76EFE401B0A28F5D9D4F841
:1056F0009C3043F00103C4F89C30032384F89830B5
:105700000120D7E79A6942F002029A61237C012BBB
:1057100040D02268936943F040039361637C012B7E
:105720003ED02268936923F480439361A37C012BCC
:105730003CD02268936943F4805393612268936953
:1057400023F44073A1680B4393612268936923F0AB
:10575000A40393612268136923F010031361E368C3
:10576000012B29D0002B2CD0022B00F09B8022682B
:10577000936943F0800393612268136943F0100337
:105780001361E368032B1CD12268936943F0200363
:10579000936116E02268936923F040039361BDE7AB
:1057A0002268936943F480439361BFE72268936959
:1057B00023F480539361C1E72268936943F00403A3
:1057C0009361A3695A1EE369013B1B0243EA4263EA
:1057D000226A013A13436269013A216843EA0243AB
:1057E000CB61A368B3F5407F62D0236E33B12268EA
:1057F000D2F8C030616E0B43C2F8C030E36D226E48
:10580000D3420DD02168D1F8C83023F00703A26E2F
:1058100014A800EB820252F84C2C1343C1F8C83094
:10582000236C6BB12168D1F8BC3023F00703626CA4
:1058300014A800EB820252F84C2C1343C1F8BC3080
:10584000A36C73B12168D1F8BC3023F07003E26C13
:1058500014A800EB820252F84C2C43EA0213C1F860
:10586000BC30236D73B12168D1F8BC3023F4E06300
:10587000626D14A800EB820252F84C2C43EA02231A
:10588000C1F8BC302268184B9A4222D00023C4F8D9
:105890009430C4F89C30012384F898302046FFF7F8
:1058A000ABFD07E72268936943F02003936188E723
:1058B000A36A013BE26A013A43EA0223226B013AFE
:1058C00043EA0213626A013A216843EA0243CB6069
:1058D0008BE76268936823F003039360D6E70120A7
:1058E000E8E600BFD409010800A0004090F8983015
:1058F000013BDBB2012B07D9D0F89C3043F0020307
:10590000C0F89C3001207047CB680A68D2B9072BD9
:105910000ED08A68DB0643EA82730A6943EA0243CF
:105920004A691343C26E496842F82130002070472B
:105930000A69CB691B0243EA02438A69134343F0B5
:105940006053EFE710B40A6942EA4372072B0FD0A5
:105950004B698C6843EA8473006F496800EBC10CA3
:1059600040F83120CCF8043000205DF8044B70473B
:105970008B69F1E790F898C05FFA8CFCBCF1010FDD
:1059800007D0D0F89C3043F00403C0F89C300120CD
:105990007047920042EA011242EA4302036800990A
:1059A0000A43C3F880200020704790F89830DBB29B
:1059B000012B07D0D0F89C3043F00403C0F89C3092
:1059C0000120704740290AD00168D1F8B03023F097
:1059D000004343EAC272C1F8B0200020704701685A
:1059E000D1F8A03023F0004343EAC272C1F8A020EE
:1059F000F3E790F89830DBB2012B07D0D0F89C3059
:105A000043F00403C0F89C3001207047022380F863
:105A100098300268936923F0010393610023C0F872
:105A20009C301846704738B5044690F89830DBB281
:105A3000022B2BD10368D3F8C00010F07C5F0CD090
:105A4000D3F8C40010F4001F0FD0D4F89C3043F4F6
:105A50000073C4F89C3001201FE0D4F89C3043F060
:105A60002003C4F89C30012017E0D3F8C450C5F3DC
:105A700004452B462046FFF7A9FD22680123AB40D1
:105A8000C2F8D030C4F89430002006E0D0F89C3042
:105A900043F00803C0F89C30012038BD90F898C04E
:105AA0005FFA8CFCBCF1020F40F0E28070B5402937
:105AB0000CD041293DD0046D8C426DD8D0F89C307B
:105AC00043F02003C0F89C300120C3E00468D4F800
:105AD000A05015F4FE0F0CD0D4F8A45015F07F0F91
