:020000040800F2
:100000000000052461D10008091100080B11000847
:100010000D1100080F110008111100080000000068
:100020000000000000000000000000003172000825
:100030001311000800000000D17200083573000899
:10004000B5D10008B5D10008B5D10008B5D1000878
:10005000B5D10008B5D10008B5D10008B5D1000868
:10006000B5D10008B5D10008B5D1000815110008B8
:10007000251100083511000845110008B5D1000808
:10008000B5D10008B5D10008B5D100085511000858
:10009000B5D10008B5D1000865110008B5D1000838
:1000A000B5D10008B5D10008B5D10008B5D1000818
:1000B00075110008B5D10008B5D10008B5D1000808
:1000C000B5D10008B5D10008B5D10008B5D10008F8
:1000D0008511000895110008B5D10008B5D10008B8
:1000E000B5D10008B5D1000800000000B5D1000866
:1000F000B5D10008B5D10008B5D10008A511000898
:10010000B5D10008B5D10008B5D10008B5D10008B7
:10011000B5D10008B5110008B5D10008B5D1000867
:10012000B5D10008B5D10008B5D10008B5D1000897
:10013000B5D10008B5D10008B5D10008B5D1000887
:1001400000000000000000000000000000000000AF
:10015000B5D10008B5D10008B5D10008B5D1000867
:10016000B5D10008B5D10008B5D10008B5D1000857
:10017000B5D10008B5D10008B5D1000800000000D5
:10018000B5D10008B5D10008C5110008B5D10008E7
:10019000B5D10008B5D10008B5D10008B5D1000827
:1001A000B5D10008B5D10008B5D1000800000000A5
:1001B000B5D10008B5D10008B5D10008B5D1000807
:1001C000B5D10008B5D10008000000000000000013
:1001D0000000000000000000B5D100080000000091
:1001E000000000000000000000000000000000000F
:1001F0000000000000000000B5D10008B5D10008E3
:10020000B5D10008B5D1000800000000B5D1000844
:10021000B5D10008B5D10008B5D10008B5D10008A6
:10022000B5D1000800000000B5D1000800000000B2
:10023000B5D10008B5D1000800000000B5D1000814
:10024000B5D10008B5D10008B5D10008B5D1000876
:10025000B5D10008B5D10008B5D10008B5D1000866
:10026000B5D10008B5D10008B5D10008B5D1000856
:10027000B5D10008B5D10008B5D1000800000000D4
:10028000B5D10008B5D10008B5D10008B5D1000836
:1002900000000000B5D10008B5D100080000000042
:1002A00000000000B5D10008B5D10008B5D10008A4
:1002B000D5110008B5D10008B5D10008B5D10008A6
:0C02C000B5D10008B5D10008B5D1000888
:1002D00001F0FF01102A2BDB10F0070F08D010F8F7
:1002E000013B013A8B422DD010F0070F42B3F6D1FB
:1002F000F0B441EA012141EA014122F007047FF014
:1003000000070023F0E80256083C85EA010586EA6A
:10031000010685FA47F5A3FA87F586FA47F6A5FAA6
:1003200087F68EB9EED1F0BC01F0FF0102F00702B2
:1003300032B110F8013B013A83EA010313B1F8D15D
:100340000020704701387047002D06BF354603383E
:10035000073815F0010F07D1013015F4807F02BF77
:10036000013015F4C03F0130F0BC0138704700BFC8
:10037000034613F8012B002AFBD1181A01387047E5
:1003800081F0004102E000BF83F0004330B54FEA46
:1003900041044FEA430594EA050F08BF90EA020FB3
:1003A0001FBF54EA000C55EA020C7FEA645C7FEA46
:1003B000655C00F0E2804FEA5454D4EB5555B8BF69
:1003C0006D420CDD2C4480EA020281EA030382EADA
:1003D000000083EA010180EA020281EA0303362D6C
:1003E00088BF30BD11F0004F4FEA01314FF4801C3F
:1003F0004CEA113102D0404261EB410113F0004F51
:100400004FEA03334CEA133302D0524263EB430307
:1004100094EA050F00F0A780A4F10104D5F1200EA5
:100420000DDB02FA0EFC22FA05F2801841F1000100
:1004300003FA0EF2801843FA05F359410EE0A5F1D4
:1004400020050EF1200E012A03FA0EFC28BF4CF005
:10045000020C43FA05F3C01851EBE37101F00045BB
:1004600007D54FF0000EDCF1000C7EEB00006EEBC8
:100470000101B1F5801F1BD3B1F5001F0CD3490852
:100480005FEA30004FEA3C0C04F101044FEA4452A9
:1004900012F5800F80F09A80BCF1004F08BF5FEA30
:1004A000500C50F1000041EB045141EA050130BD10
:1004B0005FEA4C0C404141EB0101013C28BFB1F522
:1004C000801FE9D291F0000F04BF01460020B1FA6D
:1004D00081F308BF2033A3F10B03B3F120020CDA40
:1004E0000C3208DD02F1140CC2F10C0201FA0CF01E
:1004F00021FA02F10CE002F11402D8BFC2F1200C83
:1005000001FA02F120FA0CFCDCBF41EA0C01904038
:10051000E41AA2BF01EB0451294330BD6FEA040481
:100520001F3C1CDA0C340EDC04F11404C4F120026C
:1005300020FA04F001FA02F340EA030021FA04F37E
:1005400045EA030130BDC4F10C04C4F1200220FAD5
:1005500002F001FA04F340EA0300294630BD21FA13
:1005600004F0294630BD94F0000F83F4801306BFD9
:1005700081F480110134013D4EE77FEA645C18BFCD
:100580007FEA655C29D094EA050F08BF90EA020F64
:1005900005D054EA000C04BF1946104630BD91EA5C
:1005A000030F1EBF0021002030BD5FEA545C05D15F
:1005B0004000494128BF41F0004130BD14F580049E
:1005C0003CBF01F5801130BD01F0004545F0FE4112
:1005D00041F470014FF0000030BD7FEA645C1ABF47
:1005E000194610467FEA655C1CBF0B46024650EA7E
:1005F000013406BF52EA033591EA030F41F40021AA
:1006000030BD00BF90F0000F04BF0021704730B52F
:100610004FF4806404F132044FF000054FF0000104
:1006200050E700BF90F0000F04BF0021704730B5C5
:100630004FF4806404F1320410F0004548BF40429A
:100640004FF000013EE700BF42004FEAE2014FEAEF
:1006500031014FEA02701FBF12F07F4393F07F4FCA
:1006600081F06051704732F07F4208BF704793F0CD
:100670007F4F04BF41F40021704730B54FF46074E0
:1006800001F0004521F000411CE700BF50EA0102E3
:1006900008BF704730B54FF000050AE050EA01028C
:1006A00008BF704730B511F0004502D5404261EBFC
:1006B00041014FF4806404F132045FEA915C3FF43D
:1006C000D8AE4FF003025FEADC0C18BF03325FEADA
:1006D000DC0C18BF033202EBDC02C2F1200300FA8B
:1006E00003FC20FA02F001FA03FE40EA0E0021FAB0
:1006F00002F11444BDE600BF53B94AB9002908BF4E
:1007000000281CBF4FF0FF314FF0FF3000F00CB855
:10071000ADF1080C6DE904CE10F00AFCDDF804E040
:10072000DDE9022304B07047704700BF0348044B63
:10073000834202D0034B03B1184770472C040024B6
:100740002C040024000000000548064B1B1AD90F9A
:1007500001EBA301491002D0034B03B118477047C6
:100760002C0400242C0400240000000010B5064CCA
:10077000237843B9FFF7DAFF044B13B10448AFF312
:1007800000800123237010BD30040024000000000D
:100790005012010808B5054B1BB105490548AFF3D8
:1007A0000080BDE80840FFF7CFBF00BF0000000099
:1007B000340400245012010808B50368B3F1804FD7
:1007C00000D008BD04F0EEFDFBE772B6FEE70000C6
:1007D00000B59DB04C22002109A80DF01FFB20227E
:1007E000002101A80DF01AFB022004F081FD002376
:1007F0000093204B9A6922F440429A619B6903F46A
:1008000040430093009B1B4B9B6913F4005FFAD09D
:10081000012209924FF480330A9302231293139317
:1008200014932821159116920422179218930C23E1
:10083000199300231A931B9309A801F083FAA8B90E
:100840003F23019303210291002303930823049380
:100850004023059306934FF480620792089301A802
:1008600001F05CFE20B91DB05DF804FBFFF7ADFFA1
:10087000FFF7ABFF0048025808B504F063FDFFF72F
:10088000A7FF00F019F800F085F900F0D5FA00F0A4
:10089000BDF900F0EDF900F0F3FB0BF017F90BF0E8
:1008A000DDF80BF047F90BF079F90BF08DF800F05B
:1008B000CBF806F007FBFEE7F0B58DB007AD0024DE
:1008C0000794089409940A940B943B4BD3F8E020C6
:1008D00042F01002C3F8E020D3F8E02002F010024A
:1008E0000192019AD3F8E02042F00402C3F8E0201C
:1008F000D3F8E02002F004020292029AD3F8E0203A
:1009000042F08002C3F8E020D3F8E02002F0800239
:100910000392039AD3F8E02042F00202C3F8E020E9
:10092000D3F8E02002F002020492049AD3F8E02007
:1009300042F00102C3F8E020D3F8E02002F0010207
:100940000592059AD3F8E02042F00802C3F8E020AF
:10095000D3F8E03003F008030693069B174E0122FC
:100960004AF20901304603F0F1F84FF420430793AF
:100970000127089709940A942946304602F0DEFFC1
:10098000092307930897099403230A9329463046BD
:1009900002F0D4FF4FF4A05307934FF48813089349
:1009A00009942946064802F0C9FF21464FF000602D
:1009B00004F00AFD0DB0F0BD0044025800080258D2
:1009C0000010025808B5012006F0B4FAFBE708B59C
:1009D00009F08AFA012006F0ADFAF9E708B50AF045
:1009E00027FE012006F0A6FAF9E708B509F0D8FFBE
:1009F000012006F09FFAF9E708B50AF0F1FF01209F
:100A000006F098FAF9E708B50AF0ACFF012006F005
:100A100091FAF9E708B50AF0EDFB012006F08AFA31
:100A2000F9E708B50AF01CFD012006F083FAF9E7A2
:100A3000034B0360034B0B6080231360704700BFC0
:100A40004C0600244C04002410B5B8B0484C0DF1FD
:100A5000C40CA646BEE80F00ACE80F009EE80700F5
:100A60008CE80700002131A806F031FA414B1860EC
:100A70000DF1A80C04F11C0EBEE80F00ACE80F004D
:100A80009EE807008CE8070000212AA806F01FFA5C
:100A9000394B18600DF18C0C04F1380EBEE80F00D4
:100AA000ACE80F009EE807008CE80700002123A8AF
:100AB00006F00DFA314B18600DF1700C04F1540E74
:100AC000BEE80F00ACE80F009EE807008CE80700C6
:100AD00000211CA806F0FBF9294B18600DF1540CFD
:100AE00004F1700EBEE80F00ACE80F009EE80700AE
:100AF0008CE80700002115A806F0E9F9214B1860E1
:100B00000DF1380C04F18C0EBEE80F00ACE80F00BC
:100B10009EE807008CE8070000210EA806F0D7F930
:100B2000194B18600DF11C0C04F1A80EBEE80F0063
:100B3000ACE80F009EE807008CE80700002107A83A
:100B400006F0C5F9114B1860EE4604F1C40CBCE880
:100B50000F00AEE80F009CE807008EE807000021B8
:100B6000684606F0B4F90A4B186038B010BD00BFF3
:100B700068120108BC060024B8060024B40600244C
:100B8000B0060024AC060024A8060024A406002415
:100B9000A006002400B583B01B4BD3F8D82042F048
:100BA0000102C3F8D820D3F8D83003F00103019331
:100BB000019B002205210B2001F0B0F80B2001F071
:100BC000BDF8002205210C2001F0A8F80C2001F04E
:100BD000B5F8002205210D2001F0A0F80D2001F04C
:100BE000ADF8002205210E2001F098F80E2001F04A
:100BF000A5F8002205212F2001F090F82F2001F008
:100C00009DF803B000BD00BF0044025808B5164867
:100C1000164B036000238360C360037443748374C2
:100C200003224261012181611D22C2610A22026206
:100C3000042242628162C1620163436305218163D0
:100C4000C1630264082141648364C1640365426531
:100C50008365C36502664366816604F003FD00B9DF
:100C600008BDFFF7B2FDFBE76407002400A00040C9
:100C700008B51848184B036000238360C3600374F1
:100C8000437483744FF0030CC0F814C001228261D6
:100C90001D21C1610A220262C0F824C08262C162C1
:100CA000026340F2064242630E228263C36304225F
:100CB000026442648264C264036542658365C365FD
:100CC00002664366826604F0CDFC00B908BDFFF7FA
:100CD0007CFDFBE7C406002400A4004010B5B8B0BA
:100CE0000446002133913491359136913791B822E1
:100CF00004A80DF093F82368494A934204D0494A66
:100D0000934247D038B010BD4FF400420023CDE9E4
:100D100004234FF080531F9304A801F0C1FE40BB91
:100D2000414A136801331360012B25D03F4BD3F8A0
:100D3000E02042F00802C3F8E020D3F8E03003F0EE
:100D400008030193019B032333930223349300236D
:100D5000359336930923379333A9354802F0EEFDD6
:100D600000220521132000F0D9FF132000F0E6FF38
:100D7000C8E7FFF72AFDD3E72C4BD3F8EC2042F469
:100D80008072C3F8EC20D3F8EC3003F48073009346
:100D9000009BCBE74FF400420023CDE904234FF042
:100DA00080531F9304A801F07BFE40BB1E4A1368CA
:100DB00001331360012B25D01C4BD3F8E02042F007
:100DC0000202C3F8E020D3F8E03003F002030393FB
:100DD000039B60233393022334930023359336938C
:100DE0000923379333A9134802F0A8FD00220521F7
:100DF000162000F093FF162000F0A0FF82E7FFF717
:100E0000E4FCD3E7094BD3F8EC2042F48072C3F83A
:100E1000EC20D3F8EC3003F480730293029BCBE711
:100E200000A0004000A40040C00600240044025876
:100E3000000C02580004025808B51548154B036011
:100E40004FF480034360002383600722C2604FF0A9
:100E5000007202614FF0807242614FF080628261E5
:100E60004FF08042C261036243628362C3624263A5
:100E70008363C363036443648364C364036543653A
:100E8000836505F093F900B908BDFFF79EFCFBE709
:100E9000F408002400380040F0B5B9B00446002141
:100EA00033913491359136913791B82204A80CF0E2
:100EB000B5FF2268474B9A4201D039B0F0BD4FF4DC
:100EC00080520023CDE9042304A801F0E9FD0028A5
:100ED00077D1414BD3F8E82042F48042C3F8E820B0
:100EE000D3F8E82002F480420192019AD3F8E0207E
:100EF00042F00402C3F8E020D3F8E02002F004023C
:100F00000292029AD3F8E02042F00202C3F8E020F5
:100F1000D3F8E03003F002030393039B06233393DB
:100F200002263496002535950327369705233793F7
:100F300033A92A4802F002FD4FF40053339334964C
:100F4000359536970523379333A9254802F0F6FCEB
:100F50002448254B0360272343608560C5604FF418
:100F60008063036145618561C5614FF4403303626D
:100F7000456203F027F838BB1A4BE3679C631B48B4
:100F80001B4B036028234360402383600023C3601E
:100F90004FF48062026143618361C3614FF40032A8
:100FA0000262436203F00EF888B9104BA3679C639A
:100FB00000220521242000F0B1FE242000F0BEFE16
:100FC0007BE7FFF702FC84E7FFF7FFFBD4E7FFF7BF
:100FD000FCFBEAE7003800400044025800080258D1
:100FE000000402587C080024400002400408002449
:100FF0002800024002680A4B9A4200D0704782B033
:10100000084BD3F8E82042F00202C3F8E820D3F8F6
:10101000E83003F002030193019B02B0704700BF68
:10102000000400400044025800B587B0002301933B
:10103000029303930493059302680E4B9A4202D0E5
:1010400007B05DF804FB0C4BD3F8E02042F002023D
:10105000C3F8E020D3F8E03003F002030093009BD4
:10106000022301930293059301A9044802F066FC50
:10107000E6E700BF000400400044025800040258A4
:1010800000B58BB000230793089309930093019355
:10109000029303930493059306931948194A026037
:1010A00017224260836042F20F72C26003618023A4
:1010B000836100F05DFCC8B900230793099307A979
:1010C0000F4800F077FDA0B960230093002301933F
:1010D000029304930C226946094800F0CBFC58B9EE
:1010E0000748FFF7A1FF0BB05DF804FBFFF76DFBAE
:1010F000E2E7FFF76AFBE7E7FFF767FBF0E700BF10
:101100007C09002400040040FEE7FEE7FEE7FEE75E
:10111000FEE7704708B5024803F050FD08BD00BF68
:101120005C92002408B5024803F048FD08BD00BFEA
:101130000408002408B5024803F040FD08BD00BFC4
:101140007C08002408B5024803F038FD08BD00BF44
:10115000E491002408B5024804F02CFE08BD00BF4D
:101160006407002408B5024804F024FE08BD00BF4F
:10117000C406002408B5024800F06AFA08BD00BFA2
:10118000C809002408B5024805F0EAF808BD00BF08
:10119000F408002408B502480AF064FF08BD00BF47
:1011A000E093002408B5024803F008FD08BD00BF25
:1011B000D492002408B502480AF054FF08BD00BFCD
:1011C0000895002408B502480AF04CFF08BD00BF8E
:1011D0007494002408B502480AF044FF08BD00BF1B
:1011E0004C93002400B583B00A4BD3F8F42042F0AE
:1011F0000202C3F8F420D3F8F43003F002030193A1
:10120000019B00220F216FF0010000F087FD03B069
:1012100000BD00BF004402580F2801D901207047CB
:1012200010B58AB00446002201461C2000F076FD6D
:101230001C2000F083FD1B4B1C601B4BD3F8E820E7
:1012400042F00102C3F8E820D3F8E83003F00103CC
:101250000093009B01A902A801F0F0FA079BC3B913
:1012600001F0C8FA0346114AA2FB03239B0C013B81
:101270000F484FF08042026040F2E732C2604360A4
:1012800000230361836000F043FB30B101200AB00A
:1012900010BD01F0AFFA4300E5E7054800F084F91E
:1012A000F5E700BF040000240044025883DE1B431E
:1012B000C809002430B5026A036A23F001030362FF
:1012C0004468D0F818C0234B0CEA03030D6845EAC4
:1012D000030E22F002028B6813431F4ADFF888C016
:1012E000604518BF90420CBF0122002211D00CF5BE
:1012F000804C604514BF4FF0000C4FF0010C174DAF
:10130000A84206D0BCF1000F03D1DFF858C06045F9
:1013100005D123F00803CD682B4323F0040362B901
:101320000F4A904214BF00220122DFF830C060450E
:1013300003D012B90B4A904205D124F440744A6993
:1013400022438C6914434460C0F818E04A68426341
:10135000036230BD8CFFFEFF0000014000400140F1
:1013600000440140004801400004014010B58C4693
:10137000036A026A22F480720262D0F804E0C16952
:101380001D4A0A40DCF80040144323F40073DCF8E3
:10139000082043EA0223194A1949884218BF90429B
:1013A0000CBF0122002207D123F40063DCF80C10EB
:1013B00043EA012323F480635AB9124A904214BFCE
:1013C000002201221049884203D012B90F4A9042EC
:1013D00009D12EF44052DCF8141042EA0112DCF874
:1013E000181042EA011EC0F804E0C461DCF80420D1
:1013F000C263036210BD00BF8CFFFEFF000001400E
:101400000004014000440140004001400048014008
:1014100010B5036A026A22F480520262D0F804C056
:10142000D0F81CE0184A0EEA02020C6842EA0422D4
:1014300023F400538C6843EA0433DFF854E0134C80
:10144000704518BFA04212D00EF5804E704514BFF3
:101450004FF0000E4FF0010E04F58044A04206D07C
:10146000BEF1000F03D1DFF82CE0704504D12CF45D
:10147000804C4C694CEA841CC0F804C0C2614A68C4
:101480000264036210BD00BFFF8CFFFE000001403C
:10149000000401400048014030B5036A026A22F4AA
:1014A000803202624268446DDFF860C004EA0C0CCE
:1014B0000C6844EA0C0423F400338D6843EA0543C6
:1014C000DFF84CE0DFF84CC0604518BF704512D023
:1014D0000CF5804C604514BF4FF0000C4FF0010C30
:1014E0000EF5804E704506D0BCF1000F03D1DFF839
:1014F00028C0604504D122F480324D6942EA0522B9
:10150000426044654A688265036230BD8FFFFEFF1A
:1015100000000140000401400048014010B5036A8A
:10152000026A22F480120262D0F804C0D0F854E0BB
:10153000184A0EEA02020C6842EA042223F400135D
:101540008C6843EA0453DFF854E0134C704518BF2D
:10155000A04212D00EF5804E704514BF4FF0000E21
:101560004FF0010E04F58044A04206D0BEF1000FFA
:1015700003D1DFF82CE0704504D12CF4802C4C69A9
:101580004CEA842CC0F804C042654A68C265036214
:1015900010BD00BFFF8FFFFE0000014000040140AE
:1015A000004801407047000090F83D30012B42D1C7
:1015B000022380F83D300268D36843F00103D36012
:1015C00003681F4AB3F1804F18BF934225D0A2F59C
:1015D0007C42934221D002F5806293421DD002F5F5
:1015E0008062934219D002F57842934215D0A2F559
:1015F0006C42934211D002F5943293420DD0A2F581
:10160000C042934209D002F58062934205D01A6825
:1016100042F001021A60002070479968094A0A40A6
:10162000062A18BFB2F5803F07D01A6842F00102BF
:101630001A6000207047012070470020704700BFEB
:101640000000014007000100704770477047704775
:1016500070B504460368DE681D6915F0020F10D0EE
:1016600016F0020F0DD06FF002021A61012303770A
:1016700003689B6913F0030F67D0FFF7E6FF0023B1
:10168000237715F0040F12D016F0040F0FD0236843
:101690006FF004021A610223237723689B6913F415
:1016A000407F58D02046FFF7D0FF0023237715F066
:1016B000080F12D016F0080F0FD023686FF0080241
:1016C0001A61042323772368DB6913F0030F49D0E1
:1016D0002046FFF7BAFF0023237715F0100F12D032
:1016E00016F0100F0FD023686FF010021A61082354
:1016F00023772368DB6913F4407F3AD02046FFF755
:10170000A4FF0023237715F0010F02D016F0010F7C
:1017100036D115F0800F02D115F4005F02D016F01B
:10172000800F35D115F4807F02D016F0800F37D1AD
:1017300015F0400F02D016F0400F39D115F0200FF0
:1017400002D016F0200F3BD170BDFFF77DFF204681
:10175000FFF77CFF93E72046FFF776FF2046FFF771
:1017600075FFA2E72046FFF76FFF2046FFF76EFFE9
:10177000B1E72046FFF768FF2046FFF767FFC0E7A5
:1017800023686FF001021A612046FFF715F8C0E7E1
:1017900023686FF402521A61204600F066FAC1E72E
:1017A00023686FF480721A61204600F05FFABFE789
:1017B00023686FF040021A612046FFF748FFBDE73B
:1017C00023686FF020021A61204600F04DFABBE753
:1017D00010B58C460368464A904214BF002201228D
:1017E000B0F1804F14BF114642F00101F1B9DFF8AA
:1017F00008E1704514BF4FF0000E4FF0010E3D4C54
:10180000A04213D0BEF1000F10D10EF1804E0EF5A4
:10181000823E704514BF4FF0000E4FF0010E04F5EC
:101820000064A04202D0BEF1000F04D023F0700388
:10183000DCF80440234369BB2F49884214BF0021D0
:101840000121DFF8B0E0704524D019BB01F18041DF
:1018500001F58231884214BF002101210EF5006E8E
:10186000704517D0B1B92549884214BF0021012124
:101870000EF59A3E70450DD061B92149884214BFDA
:10188000002101210EF5006E704503D011B91D49EC
:10189000884204D123F44073DCF80C100B4323F08E
:1018A0008003DCF814100B43DCF80810C162DCF88C
:1018B000001081621449884208BF42F0010262B9F7
:1018C0000E4A904214BF0022012201F57051884255
:1018D00003D012B90D4A904202D1DCF81020026305
:1018E000026842F00402026001224261036010BDFE
:1018F0000000014000040040000800400044014096
:1019000000E0004000E400400004014000480140C5
:1019100060B310B5044690F83D3013B3022384F849
:101920003D30214651F8040BFFF752FF012384F8A4
:10193000483084F83E3084F83F3084F8403084F8F2
:10194000413084F8423084F8433084F8443084F8DD
:10195000453084F8463084F8473084F83D30002024
:1019600010BD80F83C30FFF71DFED7E7012070471F
:1019700060B310B5044690F83D3013B3022384F8E9
:101980003D30214651F8040BFFF722FF012384F874
:10199000483084F83E3084F83F3084F8403084F892
:1019A000413084F8423084F8433084F8443084F87D
:1019B000453084F8463084F8473084F83D300020C4
:1019C00010BD80F83C30FFF715FBD7E701207047CA
:1019D00010B58E46036A026A22F010020262D0F845
:1019E00004C081691D4C0C40DEF8001044EA01245B
:1019F00023F02003DEF8082043EA0213184A1949AD
:101A0000884218BF90420CBF0122002207D123F068
:101A10008003DEF80C1043EA011323F040035AB9A7
:101A2000114A904214BF002201221049884203D07B
:101A300012B90F4A904209D12CF4406CDEF8142000
:101A40004CEA820CDEF818204CEA820CC0F804C084
:101A50008461DEF804208263036210BDFF8CFFFE08
:101A600000000140000401400044014000400140EA
:101A70000048014038B590F83C30012B00F09880C8
:101A80000446012380F83C300C2A66D01ED8042A74
:101A900038D0082A4CD0BAB90D460068FFF70AFCC6
:101AA0002268936943F0080393612268936923F0E5
:101AB000040393612268936929690B4393610020B1
:101AC000002384F83C3038BD1846F9E7102A5AD074
:101AD000142A15D10D460068FFF720FD2268536DCA
:101AE00043F4006353652268536D23F480635365A8
:101AF0002268536D296943EA012353650020DFE71B
:101B00000120DDE70D460068FFF762FF2268936958
:101B100043F4006393612268936923F480639361C3
:101B200022689369296943EA012393610020C7E78A
:101B30000D460068FFF71AFC2268D36943F00803DA
:101B4000D3612268D36923F00403D3612268D36987
:101B500029690B43D3610020B2E70D460068FFF707
:101B600057FC2268D36943F40063D3612268D369C8
:101B700023F48063D3612268D369296943EA01238E
:101B8000D36100209CE70D460068FFF785FC2268C2
:101B9000536D43F0080353652268536D23F004032B
:101BA00053652268536D29690B435365002087E70D
:101BB000022088E790F83C20012A4FD010B5034658
:101BC000012280F83C20022280F83D200268506803
:101BD000D2F808C0DFF88CE0214C724518BFA24251
:101BE00003D120F470004C68204320F070000C6892
:101BF000204350601A681A48B2F1804F18BF8242E1
:101C00001FD0A0F57C4082421BD000F5806082424C
:101C100017D000F58060824213D000F578408242F0
:101C20000FD0A0F56C4082420BD000F59430824278
:101C300007D0A0F5C040824203D000F58060824208
:101C400005D12CF0800C896841EA0C0191600122D9
:101C500083F83D20002083F83C0010BD022070472F
:101C600000000140000401407047704770470000C9
:101C7000002807DB00F01F02400901239340024ABD
:101C800042F82030704700BF00E100E0002804DB8C
:101C90000901C9B2044B1954704700F00F00090143
:101CA000C9B2024B1954704700E400E014ED00E0A3
:101CB00000B500F00700A0F1030CBCF1040F07D839
:101CC000C0F1070E0430062806D84FF0000C03E0E0
:101CD0004FF0040E4FF0000C4FF0FF3303FA0EF0FC
:101CE00021EA000101FA0CF103FA0CF322EA0302E3
:101CF00041EA020000BD00000649CB6823F4E0631E
:101D00001B041B0C000200F4E0600343024A1A4368
:101D1000CA60704700ED00E00000FA0510B5044607
:101D2000054BD868C0F30220FFF7C2FF01462046EA
:101D3000FFF7ACFF10BD00BF00ED00E008B5FFF7F6
:101D400097FF08BD002800F0D58238B50446036827
:101D500013F0010F25D0964A136903F03803926AF5
:101D6000102B15D0182B0FD06368B3F5803F3FD0F0
:101D7000002B53D18E4B1A6822F480321A601A68F5
:101D800022F480221A6038E002F00302022AEBD12A
:101D9000874B1B6813F4003F03D06368002B00F0EF
:101DA000AB82236813F0020F00F08880804A136929
:101DB000926A13F038035AD0182B55D0E368002BE1
:101DC00000F0A9807A490A6822F0190213430B60D7
:101DD00003F0F4FA0546764B1B6813F0040F40F04D
:101DE000918003F0EBFA401B0228F4D903208AE229
:101DF0006F4A136843F48033136063682BB303F0B6
:101E0000DDFA05466A4B1B6813F4003FC9D103F0A5
:101E1000D5FA401B6428F5D9032074E2B3F5A02F4E
:101E200009D0634B1A6822F480321A601A6822F4CF
:101E300080221A60E1E75E4B1A6842F480221A6041
:101E40001A6842F480321A60D7E703F0B7FA054601
:101E5000574B1B6813F4003FA3D003F0AFFA401BAD
:101E60006428F5D903204EE212F0030FA6D1504B9F
:101E70001B6813F0040F03D0E368002B00F03E82D0
:101E80004B4A136823F01903E1680B43136003F016
:101E900095FA0546464B1B6813F0040F06D103F074
:101EA0008DFA401B0228F5D903202CE2404A5368E2
:101EB00023F0FE43216943EA01635360236813F072
:101EC000100F51D03A4A136903F03803926A082B75
:101ED00039D0182B33D0E369002B6BD0344A136808
:101EE00043F08003136003F069FA0546304B1B682A
:101EF00013F4807F53D103F061FA401B0228F5D917
:101F0000032000E22A4A536823F0FE43216943EA92
:101F100001635360D2E7264A136823F0010313607C
:101F200003F04CFA0546224B1B6813F0040FC5D092
:101F300003F044FA401B0228F5D90320E3E102F044
:101F40000302012AC7D11A4B1B6813F4807F03D008
:101F5000E369802B40F0D481154AD36823F07C5389
:101F6000216A43EA0163D360236813F0080F49D064
:101F70006369002B32D00E4A536F43F0010353675D
:101F800003F01CFA05460A4B5B6F13F0020F39D1C0
:101F900003F014FA401B0228F5D90320B3E1044AE8
:101FA000D36823F07C53216A43EA0163D360DBE703
:101FB00000440258A54A136823F08003136003F01D
:101FC000FDF90546A14B1B6813F4807FCCD003F0CC
:101FD000F5F9401B0228F5D9032094E19B4A536F81
:101FE00023F00103536703F0E9F90546974B5B6F54
:101FF00013F0020F06D003F0E1F9401B0228F5D9D7
:10200000032080E1236813F0200F29D0A3699BB13E
:102010008E4A136843F48053136003F0CFF90546EA
:102020008A4B1B6813F4005F1AD103F0C7F9401BF9
:102030000228F5D9032066E1844A136823F480530B
:10204000136003F0BBF90546804B1B6813F4005F77
:1020500006D003F0B3F9401B0228F5D9032052E162
:10206000236813F0040F21D1636A002B00F04A812A
:10207000764A126902F03802182A00F0F180022B29
:1020800075D0724A136823F08073136003F096F9D9
:1020900004466E4B1B6813F0007F00F0DF8003F0F6
:1020A0008DF9001B0228F4D903202CE1684A13683B
:1020B00043F48073136003F081F90546644B1B6899
:1020C00013F4807F06D103F079F9401B6428F5D919
:1020D000032018E1A368012B0AD00BBB5B4B1A6FDE
:1020E00022F001021A671A6F22F004021A6704E054
:1020F000564A136F43F001031367A36833B303F029
:102100005DF90546514B1B6F13F0020FACD103F084
:1021100055F9401B41F288339842F3D90320F2E08D
:10212000052B09D0494B1A6F22F001021A671A6F6A
:1021300022F004021A67E0E7444B1A6F42F00402EF
:102140001A671A6F42F001021A67D6E703F036F9F0
:1021500005463E4B1B6F13F0020F85D003F02EF99E
:10216000401B41F288339842F3D90320CBE0374A31
:10217000136823F08073136003F020F90546334B96
:102180001B6813F0007F06D003F018F9401B0228EB
:10219000F5D90320B7E02D4B996A2E4A0A40A16A6F
:1021A000E06A41EA00110A439A62226B013AC2F3E3
:1021B0000802616B0139490289B20A43A16B0139F6
:1021C000090401F4FE010A43E16B0139090601F03B
:1021D000FE410A431A63DA6A22F00102DA625A6B9C
:1021E0006FF3CF02A16C42EAC1025A63DA6A22F0AD
:1021F0000C02216C0A43DA62DA6A22F00202616C94
:102200000A43DA62DA6A42F48032DA62DA6A42F463
:102210000032DA62DA6A42F48022DA62DA6A42F082
:102220000102DA621A6842F080721A6003F0C6F89E
:102230000446064B1B6813F0007F0DD103F0BEF877
:10224000001B0228F5D903205DE000BF00440258BE
:10225000004802580CFCFFFF002054E0002052E030
:1022600030498A6A086B012B4ED002F00303A16A41
:102270008B424BD1C2F30512E36A9A4248D1C0F3B4
:102280000802236B013B9A4244D1C0F34622636BA0
:10229000013B9A4240D1C0F30642A36B013B9A42F4
:1022A0003CD1C0F30660E36B013B984238D11D4B33
:1022B0005B6BC3F3CC03A26C9A4201D1002022E0F5
:1022C000184AD36A23F00103D36203F077F8054676
:1022D00003F074F8A842FBD0124A536B6FF3CF039C
:1022E000A16C43EAC1035363D36A43F00103D36291
:1022F000002008E001207047012004E0012002E0F6
:10230000012000E0184638BD0120FCE70120FAE773
:102310000120F8E70120F6E70120F4E70120F2E7C9
:102320000120F0E700440258744B1B6903F03803A6
:10233000102B00F0DD80182B0FD0002B40F0DA803E
:102340006E4B1B6813F0200F00F0D6806B4B1B68A0
:10235000C3F3C1036A48D8407047684B9A6A02F0D9
:102360000302D3F828C0CCF30510D96A01F00101AB
:102370005B6BC3F3CC0301FB03F307EE903AF8EE7B
:10238000677A1CF47C7F00F0B880012A4AD0022AC8
:1023900074D0002A40F08F80584B1B6813F0200F38
:1023A00023D056490A68C2F3C102554BD34007EE09
:1023B000103AF8EE476A07EE100AB8EE476A86EE62
:1023C000867A0B6BC3F3080306EE903AF8EE666A62
:1023D0009FED4C6A67EE867A76EEA77AF7EE006A92
:1023E00077EEA67A27EE277A38E007EE100AF8EEA5
:1023F000476A9FED456A86EE267A404B1B6BC3F316
:10240000080306EE903AF8EE666A9FED3E6A67EEC4
:10241000867A76EEA77AF7EE006A77EEA67A27EE4E
:10242000277A1BE007EE100AF8EE476A9FED376A3D
:1024300086EE267A314B1B6BC3F3080306EE903A07
:10244000F8EE666A9FED2F6A67EE867A76EEA77AD7
:10245000F7EE006A77EEA67A27EE277A274B1B6BFA
:10246000C3F34623013307EE903AF8EE677AC7EEDE
:10247000276AFCEEE67A17EE900A704707EE100A1C
:10248000F8EE476A9FED226A86EE267A1B4B1B6B9D
:10249000C3F3080306EE903AF8EE666A9FED196AF8
:1024A00067EE867A76EEA77AF7EE006A77EEA67A7E
:1024B00027EE277AD2E707EE100AF8EE476A9FED7B
:1024C000136A86EE267A0D4B1B6BC3F3080306EEE8
:1024D000903AF8EE666A9FED0B6A67EE867A76EEC2
:1024E000A77AF7EE006A77EEA67A27EE277AB5E7A5
:1024F0000848704708487047014870470044025830
:102500000090D003000000390024744C0024744A69
:10251000001BB74B00366E0100093D00002800F09B
:10252000328170B50D4604469B4B1B6803F00F03C8
:102530008B420BD2984A136823F00F030B431360AE
:10254000136803F00F038B4240F01F81236813F0E0
:10255000040F0CD02269914B9B6903F070039A42DF
:1025600005D98E498B6923F070031A438A61236869
:1025700013F0080F0CD06269884BDB6903F070031D
:102580009A4205D98549CB6923F070031A43CA6181
:10259000236813F0100F0CD0A269804BDB6903F4A1
:1025A000E0639A4205D97D49CB6923F4E0631A437D
:1025B000CA61236813F0200F0CD0E269774B1B6AC5
:1025C00003F070039A4205D974490B6A23F0700333
:1025D0001A430A62236813F0020F0CD0E2686F4BB3
:1025E0009B6903F00F039A4205D96C498B6923F06C
:1025F0000F031A438A61236813F0010F41D0674A21
:10260000936923F47063A1680B4393616368022BA1
:102610000AD0032B27D0012B2CD0604A126812F06D
:10262000040F06D10120ADE0126812F4003F00F063
:10263000AE805A490A6922F0070213430B6102F087
:10264000BDFE0646554B1B6903F038036268B3EBC9
:10265000C20F16D002F0B2FE801B41F288339842BE
:10266000F0D903208EE04D4A126812F0007FE0D1CD
:10267000012087E0494A126812F4807FD9D10120F5
:1026800080E0236813F0020F0CD0E268434B9B6993
:1026900003F00F039A4205D240498B6923F00F03E0
:1026A0001A438A613C4B1B6803F00F03AB420AD903
:1026B000394A136823F00F032B431360136803F0A8
:1026C0000F03AB4265D1236813F0040F0CD02269CD
:1026D000324B9B6903F070039A4205D22F498B69F4
:1026E00023F070031A438A61236813F0080F0CD09B
:1026F00062692A4BDB6903F070039A4205D22749CD
:10270000CB6923F070031A43CA61236813F0100FDA
:102710000CD0A269214BDB6903F4E0639A4205D235
:102720001E49CB6923F4E0631A43CA61236813F09E
:10273000200F0CD0E269194B1B6A03F070039A4218
:1027400005D216490B6A23F070031A430A62FFF799
:10275000EBFD12498B69C3F30323114AD35C03F0E9
:102760001F03D8408B6903F00F03D35C03F01F03F2
:1027700020FA03F30B4A13600B4B18600B4B1868DD
:10278000FEF74AFD70BD012070470120FAE70120E5
:10279000F8E70120F6E700BF00200052004402588D
:1027A00068140108080000240C0000240400002420
:1027B00008B5FFF7B9FD0B4A9369C3F303230A4930
:1027C000CB5C03F01F0320FA03F3926902F00F02BF
:1027D000885C00F01F0023FA00F0044A1060044AED
:1027E000136008BD00440258681401080800002462
:1027F0000C00002408B5FFF7DBFF054BDB69C3F3D2
:102800000213044AD35C03F01F03D84008BD00BF85
:10281000004402586814010808B5FFF7C9FF054BCA
:10282000DB69C3F30223044AD35C03F01F03D840DF
:1028300008BD00BF00440258681401083F2303602C
:10284000114B1A6902F0070242609A6902F4706241
:1028500082609A6902F00F02C2609A6902F0700207
:102860000261DA6902F070024261DA6902F4E06240
:1028700082611B6A03F07003C361044B1B6803F0A1
:102880000F030B60704700BF004402580020005245
:10289000404B9B6A03F00303032B79D070B50546C8
:1028A0000E463C4A136823F08063136002F086FDF5
:1028B0000446384B1B6813F0006F06D002F07EFD13
:1028C000031B022BF5D9032070BD324B9A6A22F408
:1028D0007C32296842EA01329A626A68013AC2F39C
:1028E0000802A9680139490289B20A43E968013935
:1028F000090401F4FE010A4329690139090601F0BE
:10290000FE410A439A63DA6A22F0C00269690A4307
:10291000DA62DA6A22F02002A9690A43DA62DA6A24
:1029200022F01002DA62DA6B6FF3CF02E96942EA51
:10293000C102DA63DA6A42F01002DA62C6B9154AF5
:10294000D36A43F40023D362124A136843F08063CE
:10295000136002F033FD04460E4B1B6813F0006F4A
:1029600014D102F02BFD001B0228F5D90320ABE7A0
:10297000012E05D0074AD36A43F40013D362E3E77C
:10298000044AD36A43F48013D362DDE700209BE757
:102990000120704700440258404B9B6A03F0030338
:1029A000032B79D070B505460E463C4A136823F0D8
:1029B0008053136002F002FD0446384B1B6813F08D
:1029C000005F06D002F0FAFC031B022BF5D90320AE
:1029D00070BD324B9A6A22F07C72296842EA015239
:1029E0009A626A68013AC2F30802A9680139490289
:1029F00089B20A43E9680139090401F4FE010A4376
:102A000029690139090601F0FE410A431A64DA6AAC
:102A100022F4406269690A43DA62DA6A22F40072D7
:102A2000A9690A43DA62DA6A22F48072DA625A6CBD
:102A30006FF3CF02E96942EAC1025A64DA6A42F4EA
:102A40008072DA62C6B9154AD36A43F48003D3624E
:102A5000124A136843F08053136002F0AFFC04463F
:102A60000E4B1B6813F0005F14D102F0A7FC001B93
:102A70000228F5D90320ABE7012E05D0074AD36A17
:102A800043F08073D362E3E7044AD36A43F400035C
:102A9000D362DDE700209BE7012070470044025825
:102AA000F8B50446036813F0006F2FD0436EB3F5FA
:102AB000001F25D015D8E3B1B3F5801F0ED1022138
:102AC0000830FFF7E5FE0546A5BB954A136D23F4D4
:102AD0004013616E0B431365002619E0012635464D
:102AE00016E0B3F5401F01D10025EEE7012635467B
:102AF0000EE08B4AD36A43F40033D3620025E4E747
:102B000002212830FFF748FF0546DDE7002635465D
:102B1000236813F4807F2ED0A36D022B23D00ED810
:102B20009BB1012B08D1002104F10800FFF7B0FE92
:102B300005460FE02E46EBE7012635461BE0033B3A
:102B4000012B07D90126354615E0754AD36A43F4AF
:102B50000033D36275B9724A136D23F00703A16D78
:102B60000B43136507E0002104F12800FFF714FF71
:102B70000546EFE72E46236813F4806F2DD0D4F876
:102B8000A430B3F5800F3DD00DD8C3B1B3F5001F0D
:102B900006D1002104F10800FFF77AFE054613E094
:102BA0000126354619E0B3F5000F0DD0B3F5200F1F
:102BB0000AD0B3F5C00F07D0012635460DE0584ABC
:102BC000D36A43F40033D3621DBB554A936D23F49B
:102BD0006003D4F8A4100B439365236813F4006FCB
:102BE00037D0D4F8A830B3F1007F5ED016D80BB33D
:102BF000B3F1807F0FD1002104F10800FFF748FEF8
:102C000005461CE0002104F12800FFF7C5FE05463B
:102C1000DAE72E46E1E7012635461AE0B3F1806F88
:102C20000DD0B3F1A06F0AD0B3F1407F07D00126D9
:102C300035460EE03A4AD36A43F40033D362002D9E
:102C40003AD1374A936D23F0E063D4F8A8100B43D0
:102C50009365236813F0007F13D0E36C202B35D0ED
:102C60002FD833B1102B29D12D4AD36A43F4003326
:102C7000D36295BB2A4AD36C23F03003E16C0B433B
:102C8000D364236813F4805F4DD0E36DB3F5005F28
:102C90003FD027D87BB3B3F5805F20D1002104F16A
:102CA0000800FFF7F5FD05462AE0002104F12800A1
:102CB000FFF772FE0546C2E72E46CAE701263546F3
:102CC000DFE7302BD5D001263546DAE7022104F1C3
:102CD0000800FFF7DDFD0546CBE72E46D1E70126CC
:102CE000354620E0B3F5405F0AD0B3F5804F07D0FA
:102CF0000126354617E00A4AD36A43F40033D3620B
:102D000085B9074A136D23F4E043E16D0B43136566
:102D100009E0002104F12800FFF73EFE0546EFE739
:102D2000004402582E46236813F4005F17D0236E28
:102D3000B3F5003F51D044D843B1B3F5803F3DD106
:102D4000012104F10800FFF7A3FD0546002D4BD13A
:102D5000324A136D23F4E023216E0B43136523687D
:102D600013F4804F19D0D4F8AC30B3F1005F4CD0DD
:102D70003FD843B1B3F1805F38D1012104F108009D
:102D8000FFF786FD0546002D46D1244A936D23F0BA
:102D9000E043D4F8AC100B439365236813F4004F61
:102DA0004DD0E36EB3F1805F3AD0B3F1005F00F035
:102DB0007181002B39D00126354640E00126354689
:102DC000CDE7B3F5802FC1D0B3F5A02FBED0B3F5BA
:102DD000403FBBD001263546C1E7012104F1280060
:102DE000FFF7DAFD0546B1E72E46B8E7012635467E
:102DF000D3E7B3F1804FC6D0B3F1A04FC3D0B3F146
:102E0000405FC0D001263546C7E7012104F1280004
:102E1000FFF7C2FD0546B6E72E46BEE7004402585E
:102E2000AA4AD36A43F40033D362002D40F03981BB
:102E3000A64A136D23F04053E16E0B4313652368DC
:102E400013F0807F18D0A36C022B00F0358100F2C4
:102E50002D813BB1012B40F026819C4AD36A43F47B
:102E60000033D362002D40F02E81984AD36C23F0BA
:102E70000303A16C0B43D364236813F4800F40F069
:102E80002781236813F0010F19D0A36F102B00F0D6
:102E9000928100F2848143B1082B40F07D810121B1
:102EA00004F10800FFF7F4FC0546002D40F08A818C
:102EB000864A536D23F03803A16F0B435365236893
:102EC00013F0020F19D0636F022B00F0878100F21C
:102ED0007E8143B1012B40F07781012104F108008C
:102EE000FFF7D6FC0546002D40F07F81774A536DF1
:102EF00023F00703616F0B435365236813F0040F3E
:102F00001BD0D4F89030022B00F07B8100F272814C
:102F100043B1012B40F06B81012104F10800FFF760
:102F2000B7FC0546002D40F07381684A936D23F08D
:102F30000703D4F890100B439365236813F0200F18
:102F40001DD0D4F88C30B3F1005F00F0758100F231
:102F500064814BB1B3F1805F40F05C81002104F1EA
:102F60000800FFF795FC0546002D40F06C81574A9C
:102F7000536D23F0E043D4F88C100B435365236862
:102F800013F0400F1DD0D4F89830B3F5006F00F067
:102F90006E8100F25D814BB1B3F5806F40F05581D9
:102FA000002104F10800FFF773FC0546002D40F0F6
:102FB0006581464A936D23F4E053D4F898100B438F
:102FC0009365236813F0800F1DD0D4F89C30B3F5BF
:102FD000804F00F0678100F256814BB1B3F5005F7E
:102FE00040F04E81002104F10800FFF751FC054636
:102FF000002D40F05E81354A936D23F46043D4F890
:103000009C100B439365236813F0080F0DD0D4F880
:103010008030B3F5805F00F04E812C4A536D23F46D
:103020004053D4F880100B435365236813F0100FFE
:103030000DD0D4F89430B3F5807F00F04681234A58
:10304000936D23F44073D4F894100B439365236875
:1030500013F4002F00F04E81D4F8A030B3F5803F78
:1030600000F03D81B3F5003F08D0002B40F03E81D9
:10307000194604F10800FFF70BFC0546002D40F04F
:103080003881124A936D23F44033D4F8A0100B43D7
:1030900093652FE1012104F10800FFF7F9FB0546D4
:1030A000C3E62E46CBE601263546E5E6032B3FF484
:1030B000D9AE01263546DFE6022104F10800FFF70C
:1030C000E7FB0546CEE62E46D6E600BF0044025892
:1030D000AD4A136843F48073136002F06FF907463A
:1030E000A94B1B6813F4807F05D102F067F9C01B60
:1030F0006428F5D90325002D4AD1A44B1B6FD4F8C1
:10310000B020534013F4407F0CD0A04B1A6F22F430
:103110004072196F41F480311967196F21F48031C1
:1031200019671A67D4F8B030B3F5807F15D08DBB1E
:10313000D4F8B03003F44072B2F5407F1ED0934A09
:10314000136923F47C53136190490B6FD4F8B020BA
:10315000C2F30B0213430B6793E602F02FF9074605
:103160008A4B1B6F13F0020FE1D102F027F9C01B4D
:1031700041F288339842F3D90325D8E7834802699E
:1031800022F47C52824901EA131313430361DBE703
:103190002E4676E62E4674E6012635468FE6202B2F
:1031A0003FF483AE282B3FF480AE182B3FF47DAE66
:1031B0000126354683E6012104F12800FFF7ECFBE8
:1031C000054672E62E467AE60126354695E6033B2D
:1031D000022B7FF688AE012635468EE6012104F1EA
:1031E0002800FFF7D9FB05467DE62E4685E6012639
:1031F0003546A2E6033B022B7FF694AE0126354608
:103200009BE6012104F12800FFF7C6FB054689E68D
:103210002E4692E601263546B1E6B3F1804F3FF4E3
:10322000A3AEB3F1A04F3FF49FAEB3F1405F3FF4C4
:103230009BAE01263546A2E6022104F12800FFF7E5
:10324000ABFB054690E62E4699E601263546B8E6E4
:10325000B3F5805F3FF4AAAEB3F5A05F3FF4A6AE2E
:10326000B3F5406F3FF4A2AE01263546A9E6022130
:1032700004F12800FFF790FB054697E62E46A0E6EE
:1032800001263546BFE6B3F5004F3FF4B1AEB3F5C6
:10329000204F3FF4ADAEB3F5C04F3FF4A9AE0126C9
:1032A0003546B0E6022104F12800FFF775FB05461C
:1032B0009EE62E46A7E6022104F12800FFF76CFBEC
:1032C00000283FF4AAAE0126A7E6022104F1280057
:1032D000FFF762FB00283FF4B2AE0126AFE6022101
:1032E00004F12800FFF758FB0546C7E601263546DE
:1032F00000E02E46236813F4802F24D0D4F88430C5
:10330000B3F5001F14D0B3F5401F07D0B3F5801FED
:1033100015D11E4AD36A43F40033D36295B91B4AD0
:10332000536D23F44013D4F884100B4353650AE023
:10333000012104F12800FFF72FFB0546EEE70126E7
:10334000354600E02E46236813F4803F06D0236DF7
:1033500003B3B3F5803F2BD001263546236813F025
:10336000005F2ED1236813F4003F44D0E36FB3F520
:10337000807F32D02ED9B3F5007F33D0B3F5407FB4
:1033800030D0012637E000BF004802580044025800
:10339000CFFFFF005F4AD36A43F40033D36275B9AD
:1033A0005C4AD36C23F48033216D0B43D364D5E79F
:1033B000022104F10800FFF76BFA0546EFE72E46FD
:1033C000CCE7022104F12800FFF7E6FA0028C9D073
:1033D0000126C7E733B101260DE04E4AD36A43F414
:1033E0000033D362002D5CD14A4A536D23F44073FD
:1033F000E16F0B435365236813F4801F06D0454AE1
:10340000136D23F00043216F0B431365236813F4FE
:10341000001F06D03F4A136D23F08073A16E0B434B
:103420001365236813F0804F09D03A4B1A6922F4D0
:1034300000421A611A69D4F8B4100A431A61236869
:10344000002B06DA334AD36C23F04053616D0B43F3
:10345000D364236813F4000F07D02E4A536D23F46E
:103460004003D4F888100B435365636813F0010FD1
:1034700019D1636813F0020F1ED1636813F0040FB3
:1034800023D1636813F0080F28D1636813F0100F7D
:103490002DD1636813F0200F32D106B101263046DA
:1034A000F8BD2E46A7E7002104F10800FFF7F0F968
:1034B0000028DED00646DCE7012104F10800FFF712
:1034C000E7F90028D9D00646D7E7022104F1080021
:1034D000FFF7DEF90028D4D00646D2E7002104F138
:1034E0002800FFF759FA0028CFD00646CDE7012182
:1034F00004F12800FFF750FA0028CAD00646C8E7B2
:10350000022104F12800FFF747FA0028C5D0012660
:10351000C5E700BF0044025808B5FFF749F9054B5D
:103520001B6AC3F30213044AD35C03F01F03D840A1
:1035300008BD00BF004402586814010800B5794B6B
:103540009A6AD3F828C0CCF3053ED96AC1F30011BA
:10355000DB6BC3F3CC0301FB03F31CF47C3F00F0F3
:10356000DB8002F0030207EE903AF8EE677A012A58
:103570004BD0022A00F09680002A40F0B080694BC0
:103580001B6813F0200F23D066490A68C2F3C102FA
:10359000654BD34007EE103AF8EE476A07EE10EAA3
:1035A000B8EE476A86EE867A8B6BC3F3080306EEA5
:1035B000903AF8EE666A9FED5D6A67EE867A76EE7F
:1035C000A77AF7EE006A77EEA67A27EE277A38E038
:1035D00007EE10EAF8EE476A9FED556A86EE267A06
:1035E000504B9B6BC3F3080306EE903AF8EE666A05
:1035F0009FED4E6A67EE867A76EEA77AF7EE006A5E
:1036000077EEA67A27EE277A1BE007EE10EAF8EEAF
:10361000476A9FED486A86EE267A424B9B6BC3F35E
:10362000080306EE903AF8EE666A9FED406A67EE90
:10363000867A76EEA77AF7EE006A77EEA67A27EE1C
:10364000277A384A936BC3F3462307EE903AF8EE95
:10365000677AF7EE006A77EEA67A87EE276ABCEE05
:10366000C66A80ED006A936BC3F3064307EE903A97
:10367000F8EE677A77EEA67A87EE276ABCEEC66A1E
:1036800080ED016A936BC3F3066307EE903AF8EEA0
:10369000677A77EEA67AC7EE276AFCEEE66AC0ED97
:1036A000026A00BD07EE10EAF8EE476A9FED226A53
:1036B00086EE267A1B4B9B6BC3F3080306EE903A0B
:1036C000F8EE666A9FED196A67EE867A76EEA77A5B
:1036D000F7EE006A77EEA67A27EE277AB1E707EED3
:1036E00010EAF8EE476A9FED136A86EE267A0D4BD4
:1036F0009B6BC3F3080306EE903AF8EE666A9FED03
:103700000B6A67EE867A76EEA77AF7EE006A77EEB6
:10371000A67A27EE277A94E700230360436083604C
:10372000BFE700BF004402580090D00300000039FA
:103730000024744C0024744A001BB74B00B5794B2D
:103740009A6AD3F828C0CCF3055ED96AC1F3002188
:103750005B6CC3F3CC0301FB03F31CF07C7F00F034
:10376000DB8002F0030207EE903AF8EE677A012A56
:103770004BD0022A00F09680002A40F0B080694BBE
:103780001B6813F0200F23D066490A68C2F3C102F8
:10379000654BD34007EE103AF8EE476A07EE10EAA1
:1037A000B8EE476A86EE867A0B6CC3F3080306EE22
:1037B000903AF8EE666A9FED5D6A67EE867A76EE7D
:1037C000A77AF7EE006A77EEA67A27EE277A38E036
:1037D00007EE10EAF8EE476A9FED556A86EE267A04
:1037E000504B1B6CC3F3080306EE903AF8EE666A82
:1037F0009FED4E6A67EE867A76EEA77AF7EE006A5C
:1038000077EEA67A27EE277A1BE007EE10EAF8EEAD
:10381000476A9FED486A86EE267A424B1B6CC3F3DB
:10382000080306EE903AF8EE666A9FED406A67EE8E
:10383000867A76EEA77AF7EE006A77EEA67A27EE1A
:10384000277A384A136CC3F3462307EE903AF8EE12
:10385000677AF7EE006A77EEA67A87EE276ABCEE03
:10386000C66A80ED006A136CC3F3064307EE903A14
:10387000F8EE677A77EEA67A87EE276ABCEEC66A1C
:1038800080ED016A136CC3F3066307EE903AF8EE1D
:10389000677A77EEA67AC7EE276AFCEEE66AC0ED95
:1038A000026A00BD07EE10EAF8EE476A9FED226A51
:1038B00086EE267A1B4B1B6CC3F3080306EE903A88
:1038C000F8EE666A9FED196A67EE867A76EEA77A59
:1038D000F7EE006A77EEA67A27EE277AB1E707EED1
:1038E00010EAF8EE476A9FED136A86EE267A0D4BD2
:1038F0001B6CC3F3080306EE903AF8EE666A9FED80
:103900000B6A67EE867A76EEA77AF7EE006A77EEB4
:10391000A67A27EE277A94E700230360436083604A
:10392000BFE700BF004402580090D00300000039F8
:103930000024744C0024744A001BB74B70B582B04D
:10394000864600236CE0DEF808405D000320A840B6
:1039500024EA0004C868A8402043CEF80800DEF836
:10396000044024EA0C044868C0F300109840204347
:10397000CEF8040066E0DC0808345EF8240003F0AA
:103980000705AD004FF00F0C0CFA05FC20EA0C0CFB
:103990000869A84040EA0C004EF8240068E00920BD
:1039A00000E0002000FA0CF028430234644D45F892
:1039B00024004FF0B0400468D04324EA02054E686A
:1039C00016F4801F01D042EA04054FF0B044256090
:1039D000646800EA04054E6816F4001F01D042EA4C
:1039E00004054FF0B0446560D4F8844000EA040553
:1039F0004E6816F4003F01D042EA04054FF0B0448F
:103A0000C4F88450D4F8804020404D6815F4803FBD
:103A100001D042EA04004FF0B042C2F88000013306
:103A20000A6832FA03F000F088804FF0010C0CFABB
:103A300003FC1CEA0202F2D0486800F003000138DF
:103A4000012880D9486800F0030003280BD0DEF875
:103A50000C405D000320A84024EA00048868A840C8
:103A60002043CEF80C00486800F00300022882D002
:103A7000DEF800005C004FF0030C0CFA04FC20EAB6
:103A80000C0C486800F00300A04040EA0C00CEF89F
:103A90000000486810F4403FC1D02A48D0F8F440F4
:103AA00044F00204C0F8F440D0F8F40000F0020042
:103AB000019001989C08A51C214850F8255003F05E
:103AC000030C4FEA8C0C0F2000FA0CF025EA0005DD
:103AD0001D4886453FF465AF00F5806086451ED0E1
:103AE00000F5806086451CD000F5806086451AD0C0
:103AF00000F58060864518D000F58060864516D0B8
:103B000000F58060864514D000F58060864512D0AF
:103B100000F5006086453FF442AF0A2042E70120ED
:103B200040E702203EE703203CE704203AE7052077
:103B300038E7062036E7072034E702B070BD00BF43
:103B40000004005800440258000002580AB1816184
:103B5000704709048161704730B58C4615461A4696
:103B6000846D0368DFF8D0E171498B4218BF73455B
:103B700042D018318B423FD018318B423CD01831A3
:103B80008B4239D018318B4236D018318B4233D02A
:103B900018318B4230D001F556718B422CD0183140
:103BA0008B4229D018318B4226D018318B4223D03A
:103BB00018318B4220D018318B421DD018318B42E6
:103BC0001AD018318B4217D05A498B4214D0143175
:103BD0008B4211D014318B420ED014318B420BD05A
:103BE00014318B4208D014318B4205D014318B42F2
:103BF00002D014318B4207D1436E816E5960C36E7F
:103C000013B1036F416F596003684B49DFF820E13E
:103C1000734518BF8B4268D00EF1180E734564D0FF
:103C20000EF1180E734560D00EF1180E73455CD07E
:103C30000EF1180E734558D00EF1180E734554D07E
:103C40000EF1180E734550D00EF5567E73454CD0CC
:103C50000EF1180E734548D00EF1180E734544D07E
:103C60000EF1180E734540D00EF1180E73453CD07E
:103C70000EF1180E734538D00EF1180E734534D07E
:103C80000EF1180E734530D0DFF8B0E029497345C6
:103C900018BF8B4217D0DFF8A8E0734513D00EF1A0
:103CA000140E73450FD00EF1140E73450BD00EF1A8
:103CB000140E734507D00EF1140E734503D00EF1A8
:103CC000140E734527D1C36D03F01F0E012303FAB1
:103CD0000EF3636003685A608368402B22D0036848
:103CE000C3F808C00368DD6015E0C36D03F01F0E64
:103CF0003F2303FA0EF3A3600468236823F48023B0
:103D0000236003685A608368402B05D00368C3F8BA
:103D100008C00368DD6030BD03689D600368C3F8B8
:103D20000CC0F8E703689D600368C3F80CC0F2E7B5
:103D30002800024008540258100002401C54025847
:103D40003054025803682649264A934218BF8B42D2
:103D50002ED0183293422BD01832934228D01832EA
:103D6000934225D01832934222D0183293421FD06A
:103D7000183293421CD002F55672934218D0183272
:103D8000934215D01832934212D0183293420FD07A
:103D9000183293420CD01832934209D01832934211
:103DA00006D01832934203D023F0FF03836511E05D
:103DB000D9B210390C4AA2FB01C2C2F30212DFF8D9
:103DC0002CC01CF80220C2655F2905D96FF30903D6
:103DD00004338365806D70476FF309038365F9E7EA
:103DE0001000024028000240ABAAAAAA5014010801
:103DF00083699BB9836A012B0AD0022B02D00BB1D5
:103E000000207047C36A13F0807F2ED100207047D6
:103E1000C36AB3F1C07F2AD000207047B3F5005FBA
:103E20000AD0836A022B2CD9032B2CD1C36A13F03E
:103E3000807F2AD100207047836A022B19D00AD8CC
:103E4000CBB1012B05D1C36A13F0807F15D10020BF
:103E5000704700207047032B05D1C36AB3F1C07FC0
:103E60000DD00020704700207047012070470120CE
:103E700070470120704701207047012070470120E2
:103E800070470120704700207047012070470000F4
:103E900003682149214A934218BF8B4227D014322C
:103EA000934224D01432934221D0143293421ED034
:103EB000143293421BD01432934218D014329342DE
:103EC00015D0DAB2103A1649A1FB021212091549AF
:103ED0001944A8291ED9144B13449B000366134BA5
:103EE000436602F01F020123934083667047DBB2F2
:103EF000083B0F4AA2FB03230E4A02EB1312920067
:103F000002660D4A4266C3F30413012202FA03F368
:103F1000836670470832DEE7085402581C54025882
:103F2000ABAAAAAAF0FBFDBF0082001080080240E5
:103F3000CDCCCCCC009600168058025801794A1E90
:103F4000072A32D800B50368DFF870E0DFF870C0E8
:103F5000634518BF73451ED00CF1140C63451AD08D
:103F60000CF1140C634516D00CF1140C634512D0FF
:103F70000CF1140C63450ED00CF1140C63450AD0FF
:103F80000CF1140C634506D0084B0B449B00C36630
:103F9000074B036705E0074B0B449B00C366064BCA
:103FA000036701239340436700BD70473F820010C1
:103FB000400902403F9600164059025808540258E2
:103FC0001C54025870B5044601F0F8F9002C00F0BA
:103FD000B481054623685349534A934218BF8B4224
:103FE0000CBF0121002150D0183293424DD018321D
:103FF00093424AD01832934247D01832934244D069
:104000001832934241D0183293423ED002F5567294
:1040100093423AD01832934237D01832934234D078
:104020001832934231D0183293422ED01832934234
:104030002BD01832934228D01832934225D03B49D6
:104040003B4A934218BF8B4200F02F81394A93427A
:1040500000F02B811432934200F0278114329342F6
:1040600000F023811432934200F01F8114329342F6
:1040700000F01B811432934200F0178140236365E6
:10408000032384F8353001204AE0022284F83520E9
:10409000002284F8342079BB274A93422CD018326E
:1040A000934229D01832934226D01832934223D01B
:1040B0001832934220D0183293421DD002F5567226
:1040C000934219D01832934216D01832934213D02B
:1040D0001832934210D0183293420DD018329342C6
:1040E0000AD01832934207D01832934204D01A688B
:1040F00022F001021A6003E01A6822F001021A603D
:1041000023681A6812F0010F18D001F057F9431B09
:10411000052BF5D920236365032384F8353001206E
:1041200070BD00BF10000240280002400854025831
:104130001C54025830540258400002401A6880490A
:104140001140A268E06802432069024360690243AB
:10415000A0690243E0690243206A02430A43616A9C
:10416000042900F097806168A1F12905A1F13F00C1
:10417000032888BF052D0AD9A1F14700012806D9D7
:10418000A1F14F00032802D97439032901D842F460
:1041900080121A6023681E465D6925F00705636A70
:1041A0001D43042B08D1A36A1D43E36A23B12046B3
:1041B000FFF71EFE002872D175612046FFF7C2FD91
:1041C000E36D03F01F023F239340836023685D4942
:1041D0005D4A934218BF8B4242D0183293423FD07F
:1041E000183293423CD01832934239D0183293425D
:1041F00036D01832934233D01832934230D002F581
:10420000567293422CD01832934229D018329342DE
:1042100026D01832934223D01832934220D018323D
:1042200093421DD0183293421AD01832934217D0BD
:10423000464A934214D01432934211D0143293421E
:104240000ED0143293420BD01432934208D0143261
:10425000934205D01432934202D01432934213D1C8
:104260002046FFF715FEA368802B59D0236E2279D4
:104270001A60636EA26E5A606368013B072B52D9C5
:104280000023E3662367636700206065012384F8E9
:10429000353045E7E16A206B01430A4363E7402379
:1042A0006365012084F835003AE7022284F835205E
:1042B000002284F8342019686FF31011A268402A94
:1042C0002CD0802A27D00022E06842EAD002206960
:1042D00042EAD002606942EAD002A06942EAD00212
:1042E000E06942EAD002206A42EA10120A431A60E8
:1042F0002268174B1344174AA2FB03231B099B0098
:10430000E3652046FFF71EFDE26D02F01F0101226A
:104310008A4042605AE74FF48042D5E71022D3E743
:1043200000236360A2E72046FFF708FEE36E002249
:104330001A60236F626F5A60A6E70120F0E600BFA3
:104340003F8010FE1000024028000240085402582E
:10435000F8ABFDA7CDCCCCCC002800F0508110B537
:10436000044690F83400012800F04B81012084F8C5
:10437000340094F83500012807D04FF400636365DA
:10438000002384F83430012010BD022084F8350069
:10439000002060652068DFF870E2DFF870C26045D9
:1043A00018BF70453ED00CF1180C60453AD00CF1A6
:1043B000180C604536D00CF1180C604532D00CF169
:1043C000180C60452ED00CF1180C60452AD00CF169
:1043D000180C604526D00CF5567C604522D00CF1B7
:1043E000180C60451ED00CF1180C60451AD00CF169
:1043F000180C604516D00CF1180C604512D00CF169
:10440000180C60450ED00CF1180C60450AD00CF168
:10441000180C604506D0D0F800C02CF0010CC0F894
:1044200000C005E0D0F800C02CF0010CC0F800C0BE
:104430002046FFF791FB23687349744A934218BFE3
:104440008B4238D01832934235D01832934232D052
:10445000183293422FD0183293422CD01832934204
:1044600029D01832934226D002F55672934222D0B8
:10447000183293421FD0183293421CD01832934204
:1044800019D01832934216D01832934213D01832F2
:10449000934210D0183293420DD01A6822F00E02C7
:1044A00042F00A021A60236C93B12268136843F049
:1044B000040313600CE01A6822F01E0242F0160298
:1044C0001A60236C23B12268136843F00803136059
:1044D00023684D494D4A934218BF8B4242D018324F
:1044E00093423FD0183293423CD01832934239D095
:1044F0001832934236D01832934233D01832934256
:1045000030D002F5567293422CD01832934229D003
:104510001832934226D01832934223D01832934255
:1045200020D0183293421DD0183293421AD018323C
:10453000934217D0364A934214D01432934211D08A
:10454000143293420ED0143293420BD01432934261
:1045500008D01432934205D01432934202D0143260
:1045600093420ED1236E1A6812F4803F03D01A686A
:1045700042F480721A60E36E1BB11A6842F48072D2
:104580001A6023682049214A934218BF8B4230D0D9
:10459000183293422DD0183293422AD018329342C7
:1045A00027D01832934224D01832934221D01832A7
:1045B00093421ED002F5567293421AD0183293429B
:1045C00017D01832934214D01832934211D01832B7
:1045D00093420ED0183293420BD01832934208D037
:1045E0001832934205D01A6842F001021A60002086
:1045F000CAE61A6842F001021A600020C4E60120EF
:1046000070470220C0E600BF1000024028000240B0
:104610000854025870B5044600F0D0FE002C00F09B
:104620008F81054694F83530022B06D080236365D0
:10463000002384F83430012070BD23688B498C4AF4
:10464000934218BF8B4230D0183293422DD018328B
:1046500093422AD01832934227D01832934224D062
:104660001832934221D0183293421ED002F556726E
:1046700093421AD01832934217D01832934214D072
:104680001832934211D0183293420ED0183293420E
:104690000BD01832934208D01832934205D01A68D2
:1046A00022F00E021A60266809E01A6822F01E0243
:1046B0001A602268536923F08003536126682368D7
:1046C0006A496B4A934218BF8B4242D018329342D8
:1046D0003FD0183293423CD01832934239D018322E
:1046E000934236D01832934233D01832934230D0AE
:1046F00002F5567293422CD01832934229D01832C8
:10470000934226D01832934223D01832934220D0BD
:10471000183293421DD0183293421AD01832934265
:1047200017D0544A934214D01432934211D0143209
:1047300093420ED0143293420BD01432934208D0DD
:104740001432934205D01432934202D01432934271
:1047500004D1226E136823F48073136023684349E5
:10476000434A934218BF8B422FD0183293422CD029
:104770001832934229D01832934226D018329342ED
:1047800023D01832934220D0183293421DD002F524
:104790005672934219D01832934216D0183293426F
:1047A00013D01832934210D0183293420DD01832E1
:1047B00093420AD01832934207D01832934204D061
:1047C0001A6822F001021A6003E01A6822F001025E
:1047D0001A60336813F0010F0ED000F0EFFD431B99
:1047E000052BF6D920236365032384F83530002395
:1047F00084F8343001201FE723681C491C4A934287
:1048000018BF8B4238D01832934235D018329342B9
:1048100032D0183293422FD0183293422CD0183213
:10482000934229D01832934226D002F55672934211
:1048300022D0183293421FD0183293421CD0183223
:10484000934219D01832934216D01832934213D0A3
:104850001832934210D0183293420DD0A16DE36DFF
:1048600003F01F02012393404B600CE01000024054
:104870002800024008540258A16DE36D03F01F02A6
:104880003F2393408B6023682E492F4A934218BFE1
:104890008B4242D0183293423FD0183293423CD0E0
:1048A0001832934239D01832934236D0183293429C
:1048B00033D01832934230D002F5567293422CD046
:1048C0001832934229D01832934226D0183293429C
:1048D00023D01832934220D0183293421DD0183280
:1048E00093421AD01832934217D0184A934214D0E8
:1048F0001432934211D0143293420ED014329342A8
:104900000BD01432934208D01432934205D01432A3
:10491000934202D0143293420BD1636EA26E5A605E
:10492000E36E33B11A6822F480721A60236F626FEB
:104930005A60012384F83530002084F834007BE687
:10494000012079E610000240280002400854025875
:10495000002800F0278108B5024690F83530022B78
:1049600003D080234365012008BD03688F48904928
:104970008B4218BF83420CBF0120002065D0183144
:104980008B4262D018318B425FD018318B425CD0A1
:1049900018318B4259D018318B4256D018318B4286
:1049A00053D001F556718B424FD018318B424CD009
:1049B00018318B4249D018318B4246D018318B4286
:1049C00043D018318B4240D018318B423DD0183142
:1049D0008B423AD0196821F00E01196013687348B0
:1049E00073498B4218BF83426AD072498B4267D0A9
:1049F00018318B4264D018318B4261D018318B4210
:104A00005ED018318B425BD018318B4258D001F503
:104A100056718B4254D018318B4251D018318B4291
:104A20004ED018318B424BD018318B4248D01831C0
:104A30008B4245D018318B4242D018318B423FD047
:104A4000196821F0010119603EE0042182F8351057
:104A500080BB584A93422DD0183293422AD0183244
:104A6000934227D01832934224D01832934221D057
:104A7000183293421ED002F5567293421AD0183261
:104A8000934217D01832934214D01832934211D067
:104A9000183293420ED0183293420BD01832934200
:104AA00008D01832934205D01A6822F001021A6029
:104AB000002059E71A6822F001021A60002053E72B
:104AC000196821F0010119601368384838498B4290
:104AD00018BF834242D018318B423FD018318B42ED
:104AE0003CD018318B4239D018318B4236D0183136
:104AF0008B4233D018318B4230D001F556718B4246
:104B00002CD018318B4229D018318B4226D0183145
:104B10008B4223D018318B4220D018318B421DD0CC
:104B200018318B421AD018318B4217D022498B4250
:104B300014D014318B4211D014318B420ED0143169
:104B40008B420BD014318B4208D014318B4205D0EC
:104B500014318B4202D014318B4217D1116E0B6885
:104B600023F480730B60906DD36D03F01F0101235C
:104B70008B404360536E916E5960D36E33B11968A8
:104B800021F480711960136F516F5960012382F80D
:104B90003530002382F83430136D2BB1104698471E
:104BA0000020E1E6012070471846DDE610000240D3
:104BB000280002404000024008540258F0B583B07B
:104BC0000446002301937D4B1D687D4BA3FB0535F7
:104BD000AD0A876D3E68D7F800C0036879497A4806
:104BE000834218BF8B420CBF0120002061D0774A5E
:104BF00093425ED0183293425BD01832934258D021
:104C00001832934255D01832934252D01832934200
:104C10004FD002F5567293424BD01832934248D08F
:104C20001832934245D01832934242D01832934200
:104C30003FD0183293423CD01832934239D01832C8
:104C4000934236D06249634A934218BF8B4212D0D6
:104C5000614A93420FD0143293420CD014329342E3
:104C600009D01432934206D01432934203D0143246
:104C7000934240F060821A68E16D01F01F01042048
:104C8000884010EA0C0F00F0A68212F0040F00F02A
:104C9000A282786012F4004F00F0598212F4803F33
:104CA00040F04F82A36C002B00F0458220469847CD
:104CB00041E2E26D02F01F0108228A40324241D0F7
:104CC00070BB424A93422BD01832934228D01832FC
:104CD000934225D01832934222D0183293421FD0EB
:104CE000183293421CD002F55672934218D01832F3
:104CF000934215D01832934212D0183293420FD0FB
:104D0000183293420CD01832934209D01832934291
:104D100006D01832934203D01A68C2F3C00202E0F0
:104D20001A68C2F380026AB11A6822F004021A609B
:104D3000E36D03F01F0208239340BB60636D43F0F3
:104D400001036365E26D02F01F0226FA02F313F01D
:104D5000010F47D023681B481B498B4218BF834271
:104D60003CD018318B4239D018318B4236D01831B3
:104D70008B4233D018318B4230D018318B422DD03A
:104D800018318B422AD001F556718B4226D018314A
:104D90008B4223D018318B4220D018318B421DD04A
:104DA00018318B421AD018318B4217D018318B42F0
:104DB00014D018318B4211D01B6813E00C00002472
:104DC000B5814E1B10000240280002404000024006
:104DD000085402581C540258305402585B6913F0AE
:104DE000800F3BD1E36D03F01F03042202FA03F3AB
:104DF00033423FD02268934893498A4218BF824287
:104E000034D018318A4231D018318A422ED018312C
:104E10008A422BD018318A4228D018318A4225D0B4
:104E200018318A4222D001F556718A421ED01831BB
:104E30008A421BD018318A4218D018318A4215D0C4
:104E400018318A4212D018318A420FD018318A4262
:104E50000CD018318A4209D013680BE0012393402B
:104E6000BB60636D43F002036365BBE7126812F039
:104E7000020F3DD1E36D03F01F03102202FA03F38A
:104E800033425FD022686F486F498A4218BF82421E
:104E900034D018318A4231D018318A422ED018319C
:104EA0008A422BD018318A4228D018318A4225D024
:104EB00018318A4222D001F556718A421ED018312B
:104EC0008A421BD018318A4218D018318A4215D034
:104ED00018318A4212D018318A420FD018318A42D2
:104EE0000CD018318A4209D01268C2F3800208E05F
:104EF000BB60636D43F004036365BBE71268C2F3F4
:104F0000C002FAB1BB6023681A6812F4802F0DD07A
:104F10001B6813F4002F04D1236C9BB120469847E3
:104F200010E0A36C73B1204698470BE01A6812F4A6
:104F3000807F03D11A6822F008021A60236C0BB13B
:104F400020469847E36D03F01F03202202FA03F383
:104F5000334200F0928022683A483B498A4218BFA7
:104F600082422ED018318A422BD018318A4228D062
:104F700018318A4225D018318A4222D018318A420B
:104F80001FD018318A421CD001F556718A4218D0C0
:104F900018318A4215D018318A4212D018318A420B
:104FA0000FD018318A420CD018318A4209D01831FA
:104FB0008A4206D018318A4203D01268C2F34002F6
:104FC00002E01268C2F30012002A56D0BB6094F8C7
:104FD0003530042B0ED023681A6812F4802F3AD093
:104FE0001B6813F4002F31D1636C002B45D0204691
:104FF000984742E02268136823F016031360226882
:10500000536923F080035361236CBBB1226813689A
:1050100023F008031360E36D03F01F023F23934066
:10502000BB60012384F83530002384F83430236DCD
:10503000002B00F08080204698477CE0A36C002B7A
:10504000E4D1E8E71000024028000240E36BA3B17E
:105050002046984711E01A6812F4807F09D11A6837
:1050600022F010021A60012384F83530002384F8FE
:105070003430E36B0BB120469847636D002B5AD058
:10508000636D13F0010F52D0042384F83530236888
:105090009549964A934218BF8B422FD018329342BB
:1050A0002CD01832934229D01832934226D018328D
:1050B000934223D01832934220D0183293421DD00D
:1050C00002F55672934219D01832934216D0183214
:1050D000934213D01832934210D0183293420DD01D
:1050E000183293420AD01832934207D018329342B2
:1050F00004D01A6822F001021A6003E01A6822F054
:1051000001021A60019B01330193AB4204D823686A
:105110001B6813F0010FF5D123681B6813F0010F12
:105120000BD0032384F83530002384F83430E36C4B
:105130000BB12046984703B0F0BD012384F8353009
:10514000F2E7236C002BF6D020469847F3E712F0E5
:10515000200F3AD123686449644A934218BF8B42B6
:105160002FD0183293422CD01832934229D01832C3
:10517000934226D01832934223D01832934220D043
:10518000183293421DD002F55672934219D018324C
:10519000934216D01832934213D01832934210D053
:1051A000183293420DD0183293420AD018329342EB
:1051B00007D01832934204D01A6822F004021A6011
:1051C00003E01A6822F008021A60236C002BB2D0A8
:1051D00020469847AFE70220884010EA0C0F60D0C5
:1051E00012F0020F5DD0786012F4004F0ED012F46E
:1051F000803F05D1636C002B9DD0204698479AE7ED
:10520000E36B002B97D02046984794E712F0200FCD
:1052100040D123683449354A934218BF8B422FD07E
:10522000183293422CD01832934229D0183293422C
:1052300026D01832934223D01832934220D018320D
:1052400093421DD002F55672934219D01832934200
:1052500016D01832934213D01832934210D018321D
:1052600093420DD0183293420AD01832934207D09D
:105270001832934204D01A6822F00A021A6003E03E
:105280001A6822F014021A60012384F835300023D2
:1052900084F83430E36B002B3FF44DAF2046984741
:1052A00049E7082000FA01F111EA0C0F3FF443AF7F
:1052B00012F0080F3FF43FAF1A6822F00E021A6096
:1052C000E36D03F01F03012202FA03F37B606265C2
:1052D00084F83520002384F83430E36C002B3FF44D
:1052E0002AAF2046984726E71000024028000240D7
:1052F000134BDB6813F0040F07D1114BDB6803F08D
:10530000070383421AD00120704710B50C4AD368B6
:1053100023F007030343D36000F050F80446084B22
:105320005B6813F4005F07D100F048F8001BB0F58C
:105330007A7FF4D9012000E0002010BD00207047E2
:105340000048025810B50320FCF7D6FCFCF7ECFF30
:1053500010498B69C3F303230F4AD35C03F01F0387
:10536000D8408B6903F00F03D35C03F01F0320FACE
:1053700003F30A4A13600A4B18600F20FBF74CFF37
:1053800018B101231C46204610BD0446FBF72AFF36
:10539000F9E700BF0044025868140108080000241F
:1053A0000C000024034B1B78034A11680B44136064
:1053B000704700BF00000024140A0024014B186845
:1053C000704700BF140A0024034A536823EA00030D
:1053D0000B435360704700BF0004005810B4416B8A
:1053E000D0F800C0DCF88430744A134043EA8103EB
:1053F000CCF88430D0F800C0DCF8843023F47F038C
:10540000846B43EA0443CCF88430836B0B44D0F8BC
:1054100000C0DCF88810114041EA8301CCF8881004
:10542000D0F800C0DCF8881021F4FE01C46B41EA1A
:105430000441CCF88810C16B03EB4103D0F800C0E5
:10544000DCF8A010114041EA8301CCF8A010D0F89C
:1054500000C0DCF8A01021F4FE01046C41EA044114
:10546000CCF8A010016C446C04FB0133D0F800C0F0
:10547000DCF8B010114041EA8301CCF8B010D0F84C
:1054800000C0DCF8B01021F4FE01846C41EA044154
:10549000CCF8B010816CC46C04FB0133D0F800C0B0
:1054A000DCF8AC10114041EA8301CCF8AC10016D7E
:1054B000446D04FB0133D0F800C0DCF8F01011405B
:1054C00041EA8301CCF8F010D0F800C0DCF8F0100D
:1054D00021F47C11846D41EA0441CCF8F010816D17
:1054E00003EB4103D0F800C0DCF8C0100A4042EAE8
:1054F0008303CCF8C0300268D2F8C03023F47C13A8
:10550000C16D43EA0143C2F8C0300268D2F8C0302E
:1055100023F07C53016E43EA0163C2F8C030436B51
:10552000274A1A449200C266836B02EB8303036727
:10553000C16B03EBC1034367016C446C04FB01F1D5
:1055400003EB81038367816CC46C04FB01F103EB03
:105550008103C367016D446D04FB01F103EB81031B
:10556000C0F88030816D03EBC103C0F88430816ED8
:10557000C46D01FB04FC03EB8C03C0F88830046E9F
:1055800004FB01F103EB8103C0F890300D498B421D
:105590000DD9D0F89C3043F02003C0F89C30032391
:1055A00080F89830012007E0002342F8043BD0F84F
:1055B00090309342F8D8002010BC70470300FFFFE2
:1055C000002B0010FCD3004030B586461D464B68CA
:1055D00013BB08698B6818430B6840EA83400B6A69
:1055E000CC6944EA036C8B694CEA030C4B694CEAC6
:1055F000030CCB684CEA0343DEF88440DEF868E035
:1056000005FB0EFE04EB8E0C44F82E00CCF80430A3
:105610000CF1080C00201DE00C698B6844EA0300C3
:105620000B68184340F08040D9E7C31C12F803E030
:10563000831CD35C1B0443EA0E6300F1010E12F8D5
:105640000EE043EA0E2312F800E043EA0E034CF8A2
:10565000043B0430CC68024B1B5D8342E5D830BD6F
:105660005814010830B595B004464C22A04901A851
:1056700008F063FC002C00F0388123689D4A9342B7
:1056800020D094F898300BB32268936923F010036C
:105690009361FFF793FE054623689A6912F0080F9D
:1056A0001AD0FFF78BFE431B0A2BF5D9D4F89C3098
:1056B00043F00103C4F89C30032384F898300120A0
:1056C00015B030BD03F580736360DAE784F8993074
:1056D0002046FBF703FBD7E79A6942F001029A6183
:1056E000FFF76CFE054623689A6912F0010F0FD18F
:1056F000FFF764FE401B0A28F5D9D4F89C3043F02C
:105700000103C4F89C30032384F898300120D7E7C4
:105710009A6942F002029A61237C012B40D02268F0
:10572000936943F040039361637C012B3ED0226870
:10573000936923F480439361A37C012B3CD02268BE
:10574000936943F4805393612268936923F440730F
:10575000A1680B4393612268936923F0A4039361CA
:105760002268136923F010031361E368012B29D029
:10577000002B2CD0022B00F09B802268936943F011
:10578000800393612268136943F010031361E36897
:10579000032B1CD12268936943F02003936116E028
:1057A0002268936923F040039361BDE722689369FF
:1057B00043F480439361BFE72268936923F48053E5
:1057C0009361C1E72268936943F004039361A3697D
:1057D0005A1EE369013B1B0243EA4263226A013A13
:1057E00013436269013A216843EA0243CB61A3682B
:1057F000B3F5407F62D0236E33B12268D2F8C03057
:10580000616E0B43C2F8C030E36D226ED3420DD0FF
:105810002168D1F8C83023F00703A26E14A800EB6A
:10582000820252F84C2C1343C1F8C830236C6BB180
:105830002168D1F8BC3023F00703626C14A800EB98
:10584000820252F84C2C1343C1F8BC30A36C73B1E4
:105850002168D1F8BC3023F07003E26C14A800EB8F
:10586000820252F84C2C43EA0213C1F8BC30236D7B
:1058700073B12168D1F8BC3023F4E063626D14A8E1
:1058800000EB820252F84C2C43EA0223C1F8BC30F0
:105890002268184B9A4222D00023C4F89430C4F8EE
:1058A0009C30012384F898302046FFF797FD07E7E6
:1058B0002268936943F02003936188E7A36A013B60
:1058C000E26A013A43EA0223226B013A43EA0213F5
:1058D000626A013A216843EA0243CB608BE762685F
:1058E000936823F003039360D6E70120E8E600BF46
:1058F0004813010800A0004090F89830013BDBB24B
:10590000012B07D9D0F89C3043F00203C0F89C303B
:10591000012070470B68DBB9CB68072B0ED08A6873
:10592000DB0643EA82730A6943EA02434A69134386
:10593000C26E496842F82130002070470A69CB697D
:105940001B0243EA02438A69134343F06053EFE7C3
:1059500010B4CA680B6943EA4273072A0ED04A6939
:105960008C6842EA8472006F496800EBC10C40F811
:105970003130CCF80420002010BC70478A69F2E76F
:1059800090F898C0BCF1010F07D0D0F89C3043F0DC
:105990000403C0F89C3001207047920042EA0112D3
:1059A00042EA43030168009A1A43C1F880200020AC
:1059B000704790F89830012B07D0D0F89C3043F016
:1059C0000403C0F89C300120704740290AD00168C8
:1059D000D1F8B03023F0004343EAC273C1F8B030CD
:1059E000002070470168D1F8A03023F0004343EA5B
:1059F000C273C1F8A030F3E790F89830012B07D0BC
:105A0000D0F89C3043F00403C0F89C30012070476C
:105A1000022380F898300268936923F001039361B0
:105A20000023C0F89C301846704738B5044690F8FB
:105A30009830022B2BD10368D3F8C00010F07C5FA4
:105A40000CD0D3F8C40010F4001F0FD0D4F89C3051
:105A500043F40073C4F89C3001201FE0D4F89C305C
:105A600043F02003C4F89C30012017E0D3F8C43081
:105A7000C3F304431D462046FFF7A6FD2268012319
:105A8000AB40C2F8D030C4F89430002006E0D0F823
:105A90009C3043F00803C0F89C30012038BD000062
:105AA00070B590F89840022C40F0E98040290CD065
:105AB000412942D0046D8C4277D8D0F89C3043F015
:105AC0002003C0F89C300120E0E00468D4F8A0C0B6
:105AD0001CF4FE0F0CD0D4F8A4C01CF07F0F0FD123
